:100000000C941F020C94B30E0C9466020C946602BE
:100010000C9466020C9466020C9466020C946602C0
:100020000C9466020C9466020C94B3210C94852205
:100030000C948F1C0C9466020C9466020C9466025D
:100040000C9466020C9466020C9466020C94660290
:100050000C9466020C94E81C0C9466020C946602E4
:100060000C9466020C9466020C9466020C94660270
:100070000C9466020C9466020C9466020C94660260
:100080000C9466020C9466020C9466020C94660250
:100090000C9466020C9466020C9466020C94660240
:1000A0000C9466020C9466020C94660238123812A4
:1000B0006A126A12B712D512F613F613E01275130C
:1000C00086138613E613F613F613EF13961496149D
:1000D000A814A8149F14A814A814A814961496146D
:1000E000A414A814A814A414F22219231124192367
:1000F0001124652388231124DF23EE232900AC007B
:10010000AB00AA00A900A80035001E001F002000B7
:1001100021002200390014001A0008001500170001
:100120002B0004001600070009000A00E0001D0073
:100130001B00060019000500000000002F00300021
:100140002C002A0000000000E100E20001510251F1
:10015000BD00BE003A003B0045004C0023002400D7
:100160002500260027004A001C0018000C00120081
:1001700013004B000B000D000E000F0033004E006B
:10018000110010002E00380031004D00E30028005F
:1001900036003700000000005000520051004F00B0
:1001A000000000003A003B003C003D003E003F00E4
:1001B00035021E021F02200221022202010001005C
:1001C0000100010001002F0001004A004B004E0019
:1001D0004D002602010001000100010001000100A4
:1001E00000000000010046000100010000000000C6
:1001F00001000100010001004000410042004300F5
:1002000044004500230224022502260227024C0056
:1002100030005F006000610001002E0227025C00D8
:100220005D005E002D003102010059005A005B00A4
:100230002E002D02010001000100620000000000FC
:1002400001000100010001000000000045003A002B
:100250003B003C003D003E000100010001000100A8
:1002600001002F0001005000520051004F002602F3
:100270000100010001000100010001000100010076
:100280000100010001000100000000000100010068
:100290000100010000000000010001000100010058
:1002A0003F00400041004200430044003000010094
:1002B000530049004700A8002702AC00AE00AB0085
:1002C0000100A90001000100010001000100AA00D5
:1002D0000100010001000100010001000100010016
:1002E0002E000100000000000100010001000100DB
:1002F000000000002C0344006100630074007900DA
:100300006C002D004D0061006E00750066006F00EE
:1003100072006D00200028003600780036002900A9
:1003200000000E037400730068006F007200740018
:1003300000000403090409023B00020100A0FA09BD
:100340000400000103010100092111010001224004
:10035000000705810308000A0904010001030000E9
:1003600000092111010001227B0007058203200002
:100370000A12011001000000084D44363601000148
:1003800002000105010902A10185020901A1000580
:100390000919012908150025019508750181020533
:1003A00001093009311581257F95027508810609FB
:1003B000381581257F950175088106050C0A3802DC
:1003C0001581257F950175088106C0C0050109804A
:1003D000A101850319012AB700150126B70095016F
:1003E00075108100C0050C0901A101850419012ABD
:1003F000A002150126A002950175108100C005011B
:100400000906A101050719E029E71500250195084E
:10041000750181029501750881010507190029FF01
:10042000150026FF009506750881000508190129A9
:1004300005950575019102950175039101C011247F
:100440001FBECFEFDAE0DEBFCDBF04B603FE27C08C
:100450008091A9029091AA02A091AB02B091AC0246
:100460008730904BA740B04BD1F41092A902109264
:10047000AA021092AB021092AC0214BE84B7877F1E
:1004800084BF0FB6F894A89580916000886180932E
:100490006000109260000FBEE0E0F8E3099511E003
:1004A000A0E0B1E0EEE6F9E402C005900D92AC39AF
:1004B000B107D9F722E0ACE9B1E001C01D92A93A39
:1004C000B207E1F70E94EB1E0C94B5240C940000D7
:1004D0000C94430581E0089581E008950C946C022A
:1004E00008950C9470021F93CF93DF9300D000D037
:1004F0001F92CDB7DEB749835A836B833091E301F6
:1005000089819A81311114C0662359F0222349F060
:100510000E940B1A182F682F89819A810E94B219A4
:1005200003C00E94DE19182F69817A81812F04C0CF
:100530000E940B1A69817A810F900F900F900F9093
:100540000F90DF91CF911F910C942503FC01262F72
:10055000408151816281738184810C947302CF93B5
:10056000DF93EC0160E00E94A602BE01DF91CF9113
:100570000C9471020E943F1B811102C00E94E61B75
:100580000C9468020C94410508950E9484140E9402
:10059000C4022FEF84E39CE0215080409040E1F7BB
:1005A00000C000000C944F1D0F931F93CF93DF9357
:1005B000EC0161E00E94A6028C01BE010E946E0265
:1005C000882349F1BE01C8010E94080C882319F153
:1005D000BE01C8010E945A0C8823E9F0BE01C8017F
:1005E0000E94850D8823B9F08A81882369F001155E
:1005F0008CE5180731F00F3D1C4531F40E94E61BD5
:100600000AC00E94C50207C0CE01DF91CF911F91A1
:100610000F910C946A0280E0DF91CF911F910F91AE
:10062000089508950C94110381E008950C94140327
:10063000CF93C82F0E9412038C2F0E941603CF91D4
:10064000089580E090E00895089524E5829FC00118
:100650001124FC0126E0729FE00DF11D1124E60F2C
:10066000F11DEE0FFF1FE450FF4F85919491089507
:10067000880F991FFC01EC50FD4F859194910895CE
:10068000CF93DF930E9425030E945804EC0181154B
:10069000904508F041C0C11580E4D80708F0D1C0EA
:1006A000C83ED10510F5C03ED10508F0FDC0C83ADE
:1006B000D10578F4C53AD10508F0A2C0C130D10502
:1006C00009F4F2C008F4EEC0C430D10508F0ECC063
:1006D000E9C0CF3BD10508F49BC0C03CD10508F46C
:1006E000E1C0CE01805C91099EC0C11590E2D9079E
:1006F00058F4C11521E0D20708F0D6C0CD3ED1058F
:1007000008F4D0C0D065D0C0C11580E3D80708F088
:100710008EC0CE019F7087C0C11595E5D90708F03E
:1007200043C0C11524E5D20708F0A2C0C11582E577
:10073000D80708F5C11591E5D90708F085C0CE01A5
:1007400074E0969587957A95E1F783709C2F937066
:1007500021E030E002C0220F331F9A95E2F73C6897
:10076000382BCF70C695C69580E2C89FE001112452
:10077000C22BD32B99C09E01237033278C2F8695D3
:100780008695C115D34508F064C0C1E0D0E002C031
:10079000CC0FDD1F2A95E2F720E2829FC0011124D1
:1007A000C82BD92BDC6880C0C11529E5D207A0F47D
:1007B000C11588E5D80708F060C0C11596E5D907CE
:1007C00008F070C08C2F0E94EC048F71C82FD0E00D
:1007D000DC2FCC27D06268C0C1152AE5D20708F407
:1007E00051C0CE0190568115904208F05BC08D2F0C
:1007F0008F710E94EC04DD27D0628F71D82B54C01A
:10080000C55AD0E0C65BDE4FC881D0E0D0644CC092
:10081000C85AD0E0CC0FDD1FC45EDE4F0990D881EE
:10082000C02DD46441C00E943803EC013DC0CE010C
:100830009927D3FF03C0EC01D86C36C0EC01D06C13
:1008400033C0DF70D06A30C0DC2FCC27C16FD06AD4
:100850002BC0C1E0D0E002C0CC0FDD1F2A95E2F72B
:1008600020E2829FC0011124C82BD92BDA681CC05A
:10087000DC2FCC27C46FD06A17C0DC2FCC27C06F09
:10088000D06A12C08C2F8F700E94EC0494E0D69531
:10089000C7959A95E1F7CF70D0E0DC2FCC27D069CF
:1008A000C82B02C0C0E0D0E0CE01DF91CF91089507
:1008B0008238910569F1B0F48133910509F46DC076
:1008C00048F48932910509F463C08A32910509F42C
:1008D00069C008958533910509F455C089339105A0
:1008E000B9F00895833E910569F138F4803E910591
:1008F000B1F0823E910509F10895863E9105A9F176
:10090000873E9105B9F1843E910509F064C023C08A
:1009100020919A0220FD4FC021FD4DC00895809185
:100920009A0280FD44C080919B0280FF44C0809168
:100930009A0284FD42C083EE4DC080919A0282FFEC
:1009400038C0F5CF80919A0282FD33C080919B021E
:1009500080FD31C0ECCF80919B0281FF32C080913D
:100960009A0284FD2AC087EE35C080919A0283FFE7
:1009700026C0F5CF80919A0283FD21C080919B0211
:1009800081FD1FC0ECCF80919A0285FD1CC01DC067
:1009900080919A0285FD19C016C080919A0286FD49
:1009A00016C017C080919A0286FD13C010C089E35B
:1009B00011C082EE0FC080EE0DC080E00BC086EE4D
:1009C00009C084EE07C089E205C085E303C08AE25E
:1009D00001C081E390E0089590919A0292FF0DC0CA
:1009E000282F2871283019F4877F846006C0282FAB
:1009F0002471243011F48B7F886093FF0DC0282F61
:100A00002871283119F4877E846106C0282F24714B
:100A1000243111F48B7E886120919B0220FF0DC050
:100A2000382F3871383019F4877F816006C0382F2D
:100A30003171313011F48E7F886021FF0DC0282F75
:100A40002871283119F4877E816106C0282F217111
:100A5000213111F48E7E886194FD877E0895E82F00
:100A6000F0E0EE57FD4F80810895089580EA8A9561
:100A7000F1F7089500C008950C94360508950C947C
:100A80003E050C943F050C943E05F894E82FE29542
:100A9000EF70F0E031A1282F2F7081E090E001C0CD
:100AA000880F2A95EAF7982F9095932391A392A106
:100AB000892B82A3789408950895CF93DF930E94A1
:100AC000E5068091000180910001811102C097E04C
:100AD00001C090E09093910287E0891B809390027F
:100AE000C3E5D1E089910E94450581E0CA35D80768
:100AF000C9F7CDE4D1E089910E94450581E0C33575
:100B0000D807C9F7E4E7F2E0A2E8B2E082E892E0B1
:100B100011921D928E179F07D9F787E00E948F06CA
:100B20000E94BA02DF91CF910C94EF060F931F93AE
:100B3000CF93DF93CDB7DEB727970FB6F894DEBF1C
:100B40000FBECDBF0E94C60660919102882309F4B2
:100B500042C08E010F5F1F4F87E0F80111928A9506
:100B6000E9F7862F90E0B8018E579D4F0E94C20D85
:100B7000811116C080919E018F5F80939E01863007
:100B800030F1E0919002F0E0EE57FD4FD801CE0138
:100B9000089611921D92A817B907D9F711E018C04D
:100BA00010929E01A0919002B0E0AE57BD4FF801A7
:100BB0009E01285F3F4F10E081919C91981711F0A2
:100BC0008C9311E01196E217F307B1F701C010E022
:100BD0000E94C2020DC070E06E577D4F809190025E
:100BE00090E08E579D4F0E94EC0D0E945C0510E036
:100BF000812F27960FB6F894DEBF0FBECDBFDF91D1
:100C0000CF911F910F9108958F929F92AF92BF92B3
:100C1000CF92DF92EF92FF920F931F93CF93DF93C8
:100C200083E5A82E81E0B82EC4E7D2E09AE5E92E4C
:100C300091E0F92E912C01E010E06501F501808131
:100C4000F894E82FE295EF70F0E021A18F70A801F1
:100C500002C0440F551F8A95E2F7CA01922F982BC4
:100C600091A392A18095892382A378940E943A054A
:100C7000EDE4F1E020E030E0812C4191A42FA29539
:100C8000AF70B0E090968C9190E04F7002C0959557
:100C900087954A95E2F780FD07C0802F022E01C09C
:100CA000880F0A94EAF701C080E0882A2F5F3F4F3F
:100CB0002630310511F75FEFA51AB50AF6018081DC
:100CC0000E9445050E943C058881881619F088829B
:100CD00081E001C080E0982A2196EA14FB0409F023
:100CE000ACCF6091910270E06E577D4F292D47E0A7
:100CF00084E792E00E9490060E949605992011F0E8
:100D000081E090E0DF91CF911F910F91FF90EF90E4
:100D1000DF90CF90BF90AF909F908F9008950895EF
:100D2000FF920F931F93CF93DF938C01F62ED72F53
:100D3000C42F222349F081E08093A1010E94C11CAD
:100D40009093A00180939F018091A1018823C1F01D
:100D500080919F019091A0010E94D91C069780F07C
:100D6000EF2DFD2FD8014C2F50E0CD01801B910BB2
:100D7000841795071CF48D918193F7CF1092A101F0
:100D8000DF91CF911F910F91FF9008958091A20163
:100D9000811112C08091D80080618093D8008AE1CF
:100DA0008A95F1F700C08091D90080FD02C082E0F1
:100DB00001C081E08093A20181E09091A201913075
:100DC00009F080E008950C94C6060E94E306809323
:100DD00000010E94C60681110C94B60D08950E9470
:100DE000C606811102C00C94BC0D0895833081F1B8
:100DF00028F4813059F08230D1F00895853009F41B
:100E000049C0B8F1863009F456C008958091A60112
:100E1000262F30E0280F311D2F3F310524F4680FB5
:100E20006093A60108958FEF8093A60108958091A5
:100E30000601262F30E0280F311D2F3F310524F405
:100E4000680F6093060108958FEF8093060108955F
:100E500080910501262F30E0280F311D2F3F3105ED
:100E600024F4680F6093050108958FEF80930501C6
:100E7000089580910401262F30E0280F311D2F3F67
:100E8000310524F4680F6093040108958FEF809377
:100E90000401089580910201262F30E0280F311DB2
:100EA0002F3F310524F4680F6093020108958FEFFE
:100EB00080930201089580910101262F30E0280FD0
:100EC000311D2F3F310524F4680F6093010108950F
:100ED0008FEF809301010895833011F128F4813060
:100EE00049F0823091F00895853081F120F186300B
:100EF000C1F108958091A601681720F4861B8093A4
:100F0000A60108951092A601089580910601681720
:100F100020F4861B8093060108951092060108951F
:100F200080910501681720F4861B809305010895C0
:100F300010920501089580910401681720F4861B22
:100F40008093040108951092040108958091020194
:100F5000681720F4861B8093020108951092020105
:100F6000089580910101681720F4861B8093010188
:100F700008951092010108950F931F9341E050E0EE
:100F800060E070E08A019B0104C0000F111F221F66
:100F9000331F8A95D2F7C901B8010E94B4181F9176
:100FA0000F910C9484148B3109F468C058F58B3080
:100FB00009F486C078F4863009F445C020F4853001
:100FC00009F44BC07FC0873009F44AC0883009F467
:100FD00077C078C0803109F464C068F48E3009F0BD
:100FE00071C08091680282FB222720F991E092274C
:100FF00090FB82F94CC0863109F462C0893109F452
:101000005FC060C08A32E1F060F4873209F455C0F5
:1010100028F48E3108F456C08D5150C08932E9F061
:1010200051C0833450F48A3308F045C0853309F445
:1010300044C0883309F444C045C08334F1F142C050
:101040000E94E61B3DC080916802817F8E7F809365
:10105000680281E08093A40108950E94C50230C017
:1010600080916802982F9095917090FB80F9809301
:101070006802911125C0897F877F10C08091680226
:1010800081FB222720F991E0922790FB81F9809340
:1010900068029923A9F080916802816080936802B8
:1010A0000FC08091680283FB222720F991E09227EC
:1010B00090FB83F9ECCF895301C080E00E94BC070C
:1010C00081E0089580E0089580E008950C9464081C
:1010D0008E518A3030F4E82FF0E0EF59FE4F8081D6
:1010E000089580E00895CF93C82F8091A4018130A6
:1010F00051F018F0823099F17BC00E948C1A823234
:1011000009F078C004C00E948C1A823261F48C2FDE
:101110000E946608811104C08C2F0E94D3071DC055
:1011200081E090E01AC08C2F0E946408811114C0E5
:10113000C43179F048F4CB3079F0C03109F05EC0A9
:1011400082E08093A40108C0C93219F0C83321F0AD
:1011500055C01092A40152C081E0817051C0C932C3
:1011600079F108F5C43161F1A0F4C73009F044C049
:101170001092A60184E180930601C09305018CE3DF
:101180008093040188E08093020188E2809301014A
:1011900033C082EE8C0F863078F58C2F0E94680861
:1011A0008093A30129C0CE34E9F020F4CB3421F59B
:1011B0006AE013C0C13579F0C235F1F461E00DC0C9
:1011C0008091A301882319F01092A30115C081E03A
:1011D0008093A40115C061E006C08091A3010E9424
:1011E000F6060AC06AE08091A3010E946C0704C061
:1011F0001092A40180E004C081E002C080E0ADCF85
:10120000CF9108958091AD0180FF0BC060910501E1
:1012100085E0689FB0011124759567957595679570
:101220002BC081FF09C06091050185E0689FB00176
:1012300011247595679520C082FF07C06091050154
:1012400085E0689FB001112417C09091AC019923EB
:10125000D1F060910401961788F72091050185E08F
:10126000289F90011124929FA001939F500D11245B
:1012700070E0CA010E9445246038710540F4611590
:10128000710519F406C065E070E0862F08958FE7B8
:10129000089581E008958091AD0180FF08C06091BC
:1012A000020170E0759567957595679521C081FF7E
:1012B00006C06091020170E07595679519C082FFC4
:1012C00004C06091020170E010C09091AB019923BD
:1012D00099F0609101019617A0F780910201899F12
:1012E000C001112470E00E9445246038710540F46B
:1012F0006115710519F406C061E070E0862F08954C
:101300008FE7089581E008958D3E21F40E9402093F
:10131000819504C08E3E29F40E9402098093B10198
:1013200008958F3E21F40E940209819504C0803FF8
:1013300029F40E9402098093B0010895893F19F4AD
:101340000E944B0905C08A3F31F40E944B098195E8
:101350008093B20108958B3F21F40E944B0981953F
:1013600004C08C3F29F40E944B098093B301089577
:101370009FE0980F983078F421E030E0A90102C096
:10138000440F551F9A95E2F7CA019091AF01892B3E
:101390008093AF0108958D3F21F48091AD0181606C
:1013A0000BC08E3F21F48091AD01826005C08F3F5C
:1013B00029F48091AD0184608093AD0108958D3E44
:1013C00039F49091B10197FF35C01092B10159C025
:1013D0008E3E29F49091B1011916BCF32BC0909167
:1013E000B0018F3E29F497FF25C01092B00149C08B
:1013F000803F19F41916CCF31DC09091B201893FBA
:1014000029F41916BCF41092B2013BC08A3F19F4BA
:1014100097FF10C0F8CF8B3F39F49091B30197FF3D
:1014200009C01092B3012DC08C3F21F49091B301FB
:101430001916BCF39FE0980F983080F421E030E05B
:10144000A90102C0440F551F9A95E2F7CA01809581
:101450009091AF0189238093AF0113C08D3F21F498
:101460008091AD018E7F0BC08E3F21F48091AD0144
:101470008D7F05C08F3F29F48091AD018B7F8093D4
:10148000AD018091B001811106C08091B10181113F
:1014900002C01092AC018091B201811106C080910E
:1014A000B301811102C01092AB0108950E94C11CCA
:1014B0002091B001211104C02091B101222321F01B
:1014C0009093AA018093A9012091B201211104C037
:1014D0002091B301222321F09093A8018093A701CA
:1014E0008EEA91E00C946D0FEF92FF920F931F9391
:1014F000CF93DF9300D000D000D0CDB7DEB786E029
:10150000EEEAF1E0DE01119601900D928A95E1F785
:10151000E090B001F090B1010091B2011091B301DF
:101520001092B0011092B1011092B2011092B30169
:10153000E11003C0FF2009F45DC08091A9019091E2
:10154000AA010E94D91CAC019091AC01992339F0F9
:101550002091060130E02417350758F04BC0209148
:10156000A6018AE0289F900111242417350718F05E
:1015700041C09F3F19F09F5F9093AC01EE2061F056
:101580000E9402091E1414F09FEF01C091E0989F81
:10159000902D11249093B001FF2061F00E94020968
:1015A0001F1414F09FEF01C091E0989F902D11241B
:1015B0009093B1013091B0013323E1F02091B1015A
:1015C0002223C1F045EB3403C0011124992319F003
:1015D0009093B00103C081E08093B00135EB230309
:1015E000C0011124992319F09093B10103C081E047
:1015F0008093B101011103C0112309F45DC08091F2
:10160000A7019091A8010E94D91CAC019091AB0157
:10161000992339F02091030130E02417350758F061
:101620004BC02091A5018AE0289F90011124241726
:10163000350718F041C09F3F19F09F5F9093AB01B1
:10164000002361F00E944B09101614F09FEF01C0B7
:1016500091E0989F902D11249093B201112361F095
:101660000E944B09111614F09FEF01C091E0989F62
:10167000902D11249093B3013091B2013323E1F006
:101680002091B3012223C1F045EB3403C0011124A2
:10169000992319F09093B20103C081E08093B201C5
:1016A00035EB2303C0011124992319F09093B30162
:1016B00003C081E08093B3018091B00181110BC020
:1016C0008091B101811107C08091B201811103C0E5
:1016D0008091B30181110E94560AEB82FC820D8336
:1016E0001E8386E0FE013196AEEAB1E001900D92D4
:1016F0008A95E1F726960FB6F894DEBF0FBECDBFF0
:10170000DF91CF911F910F91FF90EF900895EEEA36
:10171000F1E086E0DF011D928A95E9F71092AC01B5
:101720001092AB011092AD0108950F931F93CF93C8
:10173000DF93C42FD22FFC0182818823C9F040930C
:10174000B6010E94C11C9093B5018093B40180E260
:101750008C0F883008F057C0C77081E001C0880F37
:10176000CA95EAF7DF91CF911F910F910C94F71171
:101770008091B601481330C08091B4019091B501B9
:101780000E94D91C883C910538F510E21D0FCD1739
:10179000B9F080E28C0F883040F4C77081E001C05E
:1017A000880FCA95EAF70E94FE11183028F581E0EB
:1017B0009D2F977001C0880F9A95EAF70E94F71144
:1017C000802F0E94EE111830F0F4D77081E001C034
:1017D000880FDA95EAF70AC080E28C0F883098F417
:1017E000C77081E001C0880FCA95EAF7DF91CF91F9
:1017F0001F910F910C94FE11802FDF91CF911F91BB
:101800000F910C94EE11DF91CF911F910F910895DC
:101810000F939C01CB01243F4CE5340731F188F450
:10182000293DFCE53F07D9F02A3D4CE5340779F125
:10183000283D3C45A9F506E221EE41EE68ED7CE548
:101840002BC0263FFCE53F07E1F0A8F0273F3C45D1
:1018500039F507E225EE46EE67EF7CE51DC007E2AD
:1018600025EE45EE69ED7CE517C006E221EE40EE7F
:1018700064EF7CE511C007E225EE44EE65EF7CE500
:101880000BC006E221EE42EE66EF7CE505C008E201
:1018900021E045EE6AED7CE50E94950B80E008C0F2
:1018A000FC018281882319F01092B60101C081E009
:1018B0000F910895CF93DF93EC01FB018281882380
:1018C00009F41FC1C230FCE5DF0708F41BC1C631B3
:1018D0009CE5D90738F09E012B5F3C452930310546
:1018E00008F010C10E94521B90939B0280939A02B1
:1018F000C031ECE5DE0709F4C3C008F041C0C830D0
:101900008CE5D80709F49AC0F0F4C430ECE5DE07A2
:1019100009F487C068F4C2308CE5D80709F477C0B1
:10192000C330DC4509F0E3C080919A02826076C042
:10193000C630ECE5DE0709F46EC008F07BC080918C
:101940009A0288606BC0CC308CE5D80709F485C05A
:1019500068F4CA30ECE5DE0709F474C008F079C019
:101960000E94841480919A02806858C0CE308CE521
:10197000D80709F476C008F07FC080919A028BC026
:10198000CC3FECE5DE0709F44FC018F5C3318CE518
:10199000D80709F47DC078F4C131ECE5DE0709F41D
:1019A00073C0C231DC4509F0A2C00E94841480914A
:1019B0009A028F7733C0C5318CE5D80709F472C01D
:1019C00008F486C0CB3FDC4509F091C080919B02B2
:1019D0003EC0C115FDE5DF0709F45FC058F4CE3FF6
:1019E0009CE5D90709F444C008F43FC080919B02EC
:1019F00082602DC0C230FDE5DF0709F475C008F430
:101A00005DC0C330DD4509F072C080E06EC08091DA
:101A10009A02816003C080919A02806180939A0249
:101A200066C080919A0211C080919B02826080936F
:101A30009B025DC080919A028062F0CF80919A02F1
:101A40008064ECCF80919A0288608460E7CF8160E7
:101A5000EECF80919A028E7FE1CF80919A028D7FA6
:101A6000DDCF80919A02877FD9CF80919B0218C0E9
:101A700080919B028D7FDBCF80919A028F7ECECFAB
:101A800080919A028F7DCACF80919A028F7BC6CFB8
:101A900080919A02877F8B7FC1CF80919B028D7F3F
:101AA0008E7FC5CF80919A0282FB222720F991E098
:101AB000922790FB82F990FB83F9B0CF80919B0233
:101AC000982F909591708E7F892B90FB81F9AFCFE5
:101AD0000E94841480919A0287FB222720F991E0CA
:101AE000922790FB87F99ACF81E00E94E81B8091B2
:101AF0009A0290919B020E94631B0E94841480E0D2
:101B000001C081E0DF91CF910895CF93DF938631BB
:101B10009C4541F5EB010E948C1A982F8A812091F7
:101B20000F0130911001882379F09A7A81E009F44D
:101B300080E08093B701911102C069E201C065E3C2
:101B4000C9010E942F1C0AC08091B701811102C0F7
:101B500069E201C065E3C9010E94311C0E94DA1AE2
:101B600080E001C081E0DF91CF91089561E070E0F5
:101B700087E091E00C94650E61E070E087E091E011
:101B80000C946C0ECF93DF93D62FC72F0E94040FB7
:101B9000892BF1F4ED2FFC2F80E090E0DC01A354C1
:101BA000BE4F2C912193019687309105B9F70E9481
:101BB000341DDC01CB010296A11DB11D8093B9013A
:101BC0009093BA01A093BB01B093BC0181E001C026
:101BD00080E0DF91CF910895CF93DF93D62FC72F69
:101BE0006091B9017091BA018091BB019091BC01E3
:101BF0000E94171DED2FFC2F80E090E02191DC0169
:101C0000A354BE4F2C93019687309105B9F7DF910D
:101C1000CF9108958EE1489B02C08150E1F7489B27
:101C2000FECF0895589880E28A95F1F7589A089562
:101C3000FC012AE02A95F1F728E090E080E031E00D
:101C400040E14A95F1F7880F489B02C081609327D5
:101C500000C0000040E14A95F1F7215089F720E1EA
:101C60002A95F1F729B100C0000030E13A95F1F76B
:101C7000217092272081920F90830895EF92FF9216
:101C80000F931F93CF93DF931F92CDB7DEB71982C7
:101C90008C017C01E60EF11C0E151F0551F00E940F
:101CA0000A0ECE0101960E94180EF80181938F0151
:101CB000F3CF81E09981911180E00F90DF91CF9176
:101CC0001F910F91FF90EF9008959093C50180931D
:101CD000C401509A589A08959093C5018093C40105
:101CE0005098589AE89AE9E6F0E080818C7F8083EA
:101CF0000895615091E001C0990F6A95EAF720E0DC
:101D000031E0992361F0492F482319F0589A23278D
:101D100001C0589840E24A95F1F79695F2CF2223F8
:101D200011F0589A01C0589880E28A95F1F75898B6
:101D30000895FF920F931F93CF93DF93EC018C01D3
:101D4000060F111DC017D10741F0F9900E94120E25
:101D500068E08F2D0E94790EF5CFDF91CF911F9112
:101D60000F91FF9008951F920F920FB60F921124BA
:101D70002F933F934F935F936F937F938F939F9393
:101D8000AF93BF93CF93DF93EF93FF935898509AFD
:101D9000C091C401D091C5016D81662321F08E816F
:101DA0009F810E94990E0E94120E80E18A95F1F7A0
:101DB00058985098589A80E18A95F1F76A8166237D
:101DC00051F08B819C810E943E0EE881F981811146
:101DD00004C082E003C0E881F98188E080830E942A
:101DE0000A0EFF91EF91DF91CF91BF91AF919F913B
:101DF0008F917F916F915F914F913F912F910F90B4
:101E00000FBE0F901F901895CF93DF93C091C40120
:101E1000D091C501F894509A589885E08A95F1F7C9
:101E200000005098589A80E28A95F1F7489B0AC0C2
:101E3000509A589AE881F98181E08083789481E012
:101E400090E02CC06D81662381F08E819F810E947D
:101E50003E0E81110AC0509A589AE881F98182E0B9
:101E60008083789482E090E019C00E940A0E80E29C
:101E70008A95F1F75898509A80E18A95F1F76A812E
:101E8000662321F08B819C810E94990E0E94120E84
:101E9000E881F9811082789480E090E0DF91CF9121
:101EA00008959093CB018093CA010895E091CA01EF
:101EB000F091CB01309721F00190F081E02D099451
:101EC00080E00895E091CA01F091CB01309721F0B4
:101ED0000280F381E02D09940895E091CA01F09108
:101EE000CB01309739F022E0DC012C930480F5819E
:101EF000E02D099408952091C8013091C901281757
:101F0000390771F09093C9018093C801E091CA012B
:101F1000F091CB01309721F00680F781E02D0994F4
:101F200008952091C6013091C7012817390771F033
:101F30009093C7018093C601E091CA01F091CB0153
:101F4000309721F00084F185E02D099408950E94D6
:101F5000CD1C6093DF017093E0018093E1019093C9
:101F6000E2016093DB017093DC018093DD019093CB
:101F7000DE01089585B7806885BF85B7806885BF15
:101F800008950C94C60608950C94C30F0C94C30FC7
:101F90000C94C60F0C94C30F0C94CA0F0C94C30F6F
:101FA0000E94BA0F8DE39BE10E94601D0E94CE0F3C
:101FB0000C94CC0F0E94B81C0E940E1D0E945D055F
:101FC0000E94651D0C94C80F9F92AF92BF92CF9252
:101FD000DF92EF92FF920F931F93CF93DF93CDB7D2
:101FE000DEB72A970FB6F894DEBF0FBECDBF0E94B2
:101FF000C40F0E94C30F0E94040681110E94A70F04
:102000008DECA82E81E0B82E00E010E0902E802FFD
:102010000E942F05D82EF501C1905F01C826B1F4AA
:102020000F5F1F4F0E30110589F78FEF89838A8369
:102030001B820E94C11C8160782F9D838C83498103
:102040005A816B818D810E9486102FC08091680219
:1020500081FD0E943505E12CFF24F3948C2D8F2106
:10206000F1F00E94C10F882399F0EE829F82DF2059
:1020700081E009F480E088870E94C11C8160782F8C
:102080009A8789874E815F8168858A850E9486103C
:10209000F801E353FE4F8081F826F08206C0E394F6
:1020A000FF0CF6E0EF12DACFBBCF0E94740A0E9459
:1020B000560F9091CC018917B9F00E94560F80936A
:1020C000CC012A960FB6F894DEBF0FBECDBFDF91CC
:1020D000CF911F910F91FF90EF90DF90CF90BF9025
:1020E000AF909F900C9418032A960FB6F894DEBF19
:1020F0000FBECDBFDF91CF911F910F91FF90EF9059
:10210000DF90CF90BF90AF909F900895DF92EF92B5
:10211000FF920F931F93CF93DF93CDB7DEB72B972B
:102120000FB6F894DEBF0FBECDBFF42E052F162FCD
:10213000E72ED82E61110E94AC1AFE01319686E07E
:10214000DF011D928A95E9F77E2D4F2D502F612FCB
:102150008D2D9E810E9477172B960FB6F894DEBFC7
:102160000FBECDBFDF91CF911F910F91FF90EF90E8
:10217000DF900895FC01808191810E944D1A08959D
:10218000CF93882309F4A9C0C82F8238C1F40E94D4
:10219000560F81FDA2C069E380910F01909110015B
:1021A0000E942F1C0E94DA1A2FEF81EE94E021503A
:1021B00080409040E1F700C0000069E319C0833817
:1021C00001F50E94560F80FD88C063E580910F01E4
:1021D000909110010E942F1C0E94DA1A2FEF81EEBD
:1021E00094E0215080409040E1F700C0000063E59A
:1021F00080910F01909110010E94311CCF910C949D
:10220000DA1A8438C1F40E94560F82FD66C067E472
:1022100080910F01909110010E942F1C0E94DA1AE8
:102220002FEF81EE94E0215080409040E1F700C014
:10223000000067E4DDCF8CEF8C0F813AF8F48C2F2F
:102240000E947308811149C06C2F80910F019091F9
:1022500010010E94F91B882349F06C2F80910F0117
:10226000909110010E94311C0E94DA1A6C2F80910B
:102270000F01909110010E942F1CC0CF80E28C0FA3
:10228000883048F4C77081E001C0880FCA95EAF72A
:102290000E948F1AB3CFEBE5EC0FE33040F4F0E08F
:1022A000E756FE4F808190E0CF910C947B0FE8E5DC
:1022B000EC0FE73150F4F0E0EE0FFF1FE559FE4F51
:1022C00080819181CF910C94910FCD3E30F08C2F75
:1022D0000E948409CF910C94560ACF9108958823C7
:1022E00009F464C0823879F40E94560F81FF5EC001
:1022F00069E380910F01909110010E942F1C0E94B0
:10230000DA1A69E310C08338B1F40E94560F80FFD7
:102310004DC063E580910F01909110010E942F1C28
:102320000E94DA1A63E580910F01909110010E94DA
:10233000311C0C94DA1A843879F40E94560F82FF0B
:1023400035C067E480910F01909110010E942F1C0D
:102350000E94DA1A67E4E7CF9CEF980F913A10F4E5
:10236000682FE1CF90E2980F983050F4877091E099
:1023700001C0990F8A95EAF7892F0E94951AD9CF43
:102380009BE5980F933020F480E090E00C947B0F55
:1023900098E5980F973120F480E090E00C94910F2D
:1023A0008D3E20F00E94DF090C94560A08951F9379
:1023B000CF93DF93182FEB010E94C010209741F0BC
:1023C0008FE99FE00197F1F700C000002197F6CF59
:1023D000812FDF91CF911F910C946F11893319F0E8
:1023E00060E070E002C060E570E00C94D7118823D3
:1023F00021F00E948F1A0C94DA1A0895882321F094
:102400000E94951A0C94DA1A0895CF92DF92EF92F7
:10241000FF920F931F93CF93DF937C01062FC72F5B
:10242000FC01D281158112951F700E94851A8823A4
:1024300099F0DD2389F08C2F807F803421F080E2B9
:10244000800F883048F082E00E94241B0E94851A89
:1024500091E0D82ED92601C0D12CCC2EC2948FE089
:10246000C8228C2D90E0FC01EA5AFF4F0C945924AD
:102470008C2F807FCF70882311F0C295C07FDD2321
:1024800099F0CC2309F48DC180E2800F883010F0E0
:10249000011104C08C2F0E948F1A03C08C2F0E9440
:1024A0009F1A0E94DA1A7DC1802F0E946F11CC23DF
:1024B00009F49CC180E2800F883010F0011104C043
:1024C0008C2F0E94951A03C08C2F0E94A51A0E947F
:1024D000DA1A8CC18C2F807FCF70803211F0C295B8
:1024E000C07F002319F00130C9F022C0DD2371F054
:1024F000112341F0113031F40E94BF1A8C2B0E943D
:10250000C71A74C10E94BF1A8C2B1DC0112319F069
:10251000113009F46BC10E94D01A25C0DD2321F0CF
:10252000163008F063C10EC0153008F05FC11BC043
:10253000DD2361F0112331F0F701858180FF31C186
:102540008F7085838C2F0E94F71150C1112359F091
:10255000093309F037C1FFEF27EE83E0F150204047
:102560008040E1F72DC18C2F0E94FE113FC18C2FBE
:1025700086958695837019F0813061F037C1DD232F
:1025800021F0802F9C2F937002C080E090E00E9489
:102590007B0F34C1DD2321F0802F9C2F937002C06C
:1025A00080E090E00E94910F29C1802FDD2319F077
:1025B0000E94840902C00E94DF090E94560A1EC1BF
:1025C0008C2F837009F045C0D11114C1402F429562
:1025D00046954770440F440F602F6F70862F90E030
:1025E000A0E0B0E0042E04C0880F991FAA1FBB1FF3
:1025F0000A94D2F704FF10C00FE010E020E030E0B2
:1026000004C0000F111F221F331F4A95D2F70095F7
:1026100010952095309503C000E010E09801C69514
:10262000C695C370BC01CD01602B712B822B932BFF
:10263000C23049F058F4C13019F00E94C818DAC00D
:102640000E94B618D7C00E94DA18D4C00E94B418ED
:10265000D1C0DD2319F08C2F817001C086958823AD
:1026600009F4C8C0402F429546954770440F440F67
:10267000602F6F70862F90E0A0E0B0E0042E04C0C1
:10268000880F991FAA1FBB1F0A94D2F704FF10C01E
:102690000FE010E020E030E004C0000F111F221F07
:1026A000331F4A95D2F7009510952095309503C0B9
:1026B00000E010E09801C695C695C370BC01CD013D
:1026C000602B712B822B932BC23049F058F4C13010
:1026D00019F00E948D198EC00E947B198BC00E9438
:1026E0009F1988C00E94EE1885C0CF70DD2339F095
:1026F0008C2F0E941419802F0E94F7117BC0802F0D
:102700000E94FE118C2F0E94351974C0023F01F106
:1027100028F4003F41F0013FA1F03FC0033FF9F032
:10272000043F39F13AC0DD2341F0153008F05EC0B6
:102730008C2F8F710E945A1959C0163008F056C05C
:10274000F7CFDD2339F08C2F8F710E9414194EC002
:10275000DD23C9F38C2F8F710E94351947C0DD230B
:1027600029F08C2F8F710E94FF1840C00E94FA1828
:102770003DC0DD2349F0CF718C2F0E94141963E016
:102780008C2F0E940F1B32C081E00E94241B12304C
:1027900068F182E00E94241B29C0DD2331F011235F
:1027A00091F2802F0E94C01021C0112399F20933A9
:1027B00049F49FEFE7EEF3E09150E040F040E1F79D
:1027C00000C00000802F0E946F1110C04C2F4F706E
:1027D000602FC7010E9421030E9425180FC04C2FB3
:1027E0004F70602FC7010E94240308C088EF8C0D32
:1027F000843020F40E94560F0E941803DD20C9F097
:102800000E94811A80FD15C0F70112820E947B1A76
:102810000E941419C7010E943A140E947B1ADF918A
:10282000CF911F910F91FF90EF90DF90CF900C947C
:102830003519DF91CF911F910F91FF90EF90DF90AD
:10284000CF9008950F931F93CF93DF93EC0168818E
:1028500079818A810E94581A8C010E94B1190E94C4
:10286000A218B801CE010E940512DF91CF911F91ED
:102870000F910895CF93DF93EC01988189812B818B
:102880003C81232B31F08F3F31F481E09F3F19F4DD
:1028900003C081E001C080E080FD19C0CE010E942C
:1028A000D40281110CC00E94851A882381F08A818C
:1028B000882369F082E0DF91CF910C94241BCE0134
:1028C0000E942214CE01DF91CF910C94AF02DF91D0
:1028D000CF91089580E090E00E947B0F80E090E02F
:1028E0000E94910F0E94AC1A0E94BC1A0E94DA1A30
:1028F0000E94870B0C94560A80910F019091100151
:102900000E94331C0C946A140E949C1A0C947C1430
:10291000E92FE295EF704E2F50E0FA013297EE303A
:10292000F105B0F4EA59FF4F0C945924803F91F01F
:1029300018F4883E68F40EC0843F51F40BC0883E02
:1029400048F0813F29F406C093FB882780F9089559
:1029500080E0089581E008950E944D1A0E94881435
:102960000895CF93DF9300D000D01F92CDB7DEB78C
:102970000F900F900F900F900F90DF91CF910895CF
:10298000CF93DF9300D000D000D0CDB7DEB726962E
:102990000FB6F894DEBF0FBECDBFDF91CF91089583
:1029A0001F93CF93DF93C091E40116E08091E5017E
:1029B000C81799F0D0E01C9FF0011D9FF00D112465
:1029C000EA51FE4F408151816281738184819581FA
:1029D0000E94C0142196C770E9CFDF91CF911F915B
:1029E000089540911602509117026091180270915B
:1029F000190280911A0290911B020C94C01420912C
:102A0000E4019091E50156E02917A9F030E0529FCA
:102A1000F001539FF00D1124EA51FE4F718176139E
:102A200006C07081781303C07281741306C02F5FD3
:102A30003F4F2770E9CF80E0089581E008950F931C
:102A40001F93CF93DF9380911B0282958F7009F0C3
:102A50005DC080911802882309F458C08091E40178
:102A60001091E5016091160270911702C091190250
:102A7000D0911A0291E06F3F09F090E0292F06E013
:102A8000811709F443C0209721F07F3F21F030E007
:102A900003C031E001C0322F90E030FD34C0089F08
:102AA000F001099FF00D1124DF01AA51BE4F1196CC
:102AB0003C911197371327C03C91361324C01296CE
:102AC0003C91129731111FC013964D915C91149750
:102AD0004C1B5D0B483C5105B0F480911B028F707C
:102AE000806180931B02E551FE4F80818F70806171
:102AF000808386E192E00E943A14DF91CF911F918A
:102B00000F910C94D01401968770BACFDF91CF91BA
:102B10001F910F9108958F929F92AF92BF92CF9283
:102B2000DF92EF92FF920F931F93CF93DF93CDB776
:102B3000DEB761970FB6F894DEBF0FBECDBF8C0134
:102B400085E0F801DE011D9601900D928A95E1F76E
:102B5000D801DC901196EC9011971296CC90909140
:102B60001602209117024091190250911A02411544
:102B7000510531F02F3F31F481E09F3F19F403C03C
:102B800081E001C080E080FD81C1F80183809480F4
:102B900086E1A82E82E0B82EF0901802B401641BE2
:102BA000750BFF2009F418C180911B02382F307F6C
:102BB000683C710508F0D1C031118AC0E21214C01E
:102BC000D91212C0FC2CC1100FC08F70806180938D
:102BD0001B020E94F114C5010E943A1480911B024D
:102BE000D80115968C936FC18114910439F0BFEF11
:102BF000EB1206C081E0DB1203C003C081E001C01C
:102C000080E080FD03C081E08C2502C080E090E080
:102C100080FF10C04C2D6E2D8D2D0E94FF14882337
:102C200049F086E192E00E943A14E6E1F2E086E0A3
:102C3000DF01A4C0892839F0BFEFEB1206C081E0A4
:102C4000DB1203C003C081E001C080E080FD03C04F
:102C500081E08C2502C080E090E0E82FE170BE2E7C
:102C600080FF2CC04C2D6E2D8D2D0E94FF14F82E50
:102C7000811124C0DD86EE868D859E850E944D1AC9
:102C8000292F22952F70223018F0243090F405C09F
:102C90009F7059F0811109C016C19F7031F0D801A1
:102CA00015969C91907F09F40EC1805E883008F4DF
:102CB0000AC1C8010E943A14FB2C05C1FC2CCC208F
:102CC00009F401C180911B02816080931B025BC0EB
:102CD000E21206C0D91204C0C11002C0F801A0C09F
:102CE000DD86EE868D859E850E94AC14882379F161
:102CF000CC2069F120911B02822F82958F7090E089
:102D0000029774F0809116029091170298878F8332
:102D100019869B868A862C87CE0107960E943A14D4
:102D200086E0F801A6E1B2E001900D928A95E1F704
:102D30000E941F150E94F1140DC0E21631F1DD86CC
:102D4000EE868D859E850E94AC1481112DC0C80130
:102D50000E943A14FF24F394B6C03111EECF782DBF
:102D6000998A888A4D2D5E2D6C2D89890E94B11417
:102D700086E192E00E943A1486E0D5011D928A9580
:102D8000E9F70E94F114F12C9EC0D912D8CFC110DE
:102D9000D6CFF8018583C8010E943A1486E0D50198
:102DA0001D928A95E9F78FC0CC2089F220911B02F1
:102DB000822F82958F7090E002970CF4B1CF8091B2
:102DC0001602909117029A8389831B829D828C82BE
:102DD0002E83CE010196A2CF683C710508F047C052
:102DE000FC2CCC2009F4B3CFE21230C0D9122EC093
:102DF00020911B0220FD21C0822F82958F70482FC9
:102E000050E041155105C9F0F80125834F305105B7
:102E100041F08F5F982F9295907F822F8F70892B32
:102E20008583C8010E943A1486E0F801A6E1B2E069
:102E300001900D928A95E1F744C086E0F801A6E181
:102E4000B2E001900D928A95E1F73DC0DD86EE86F5
:102E50008D859E850E94AC14811162CF80911B02EA
:102E6000816080931B02C8010E943A142CC0782D07
:102E7000998A888A4D2D5E2D6C2D89890E94B11406
:102E800086E0D5011D928A95E9F71BC0CC2009F494
:102E90005ECFDD86EE868D859E850E94AC14F82E71
:102EA000882309F454CF86E0F801A6E1B2E001904E
:102EB0000D928A95E1F786E192E00E94BA100E9495
:102EC0001F150E94F1148F2D61960FB6F894DEBF86
:102ED0000FBECDBFDF91CF911F910F91FF90EF906B
:102EE000DF90CF90BF90AF909F908F9008951F93E9
:102EF000CF93DF93CDB7DEB72C970FB6F894DEBF34
:102F00000FBECDBF4F83588769877A878B879C8791
:102F1000CE0107960E948B158823D1F09F8188856A
:102F20002A853B85232B31F08F3F31F481E09F3F91
:102F300019F403C081E001C080E080FD47C04F81EB
:102F4000588569857A858B859C850E94C0143EC012
:102F500086E0FE013796DE01119601900D928A956A
:102F6000E1F7FF81E8856A857B856115710531F0A0
:102F7000EF3F31F481E0FF3F19F403C081E001C06D
:102F800080E080FD23C02091E50130E0C901019679
:102F9000877099274091E40150E084179507F1F17B
:102FA000F983EA837D836C8396E0929FD001939F9F
:102FB000B00D1124AA51BE4FFE01319601900D9221
:102FC0009A95E1F78093E5010E94D01416E0809174
:102FD000E4019091E501891771F1189FC001112456
:102FE0008A519E4F0E948B15882329F1E091E401BC
:102FF0001E9FF0011124EA51FE4F408151816281F0
:103000007381848195810E94C0148091E40190E0D5
:103010000196877099278093E401D9CF0E94841488
:103020001092E5011092E401E6E1F2E086E0DF01B2
:103030001D928A95E9F72C960FB6F894DEBF0FBE65
:10304000CDBFDF91CF911F910895EF92FF920F9323
:103050001F93CF93DF938C01892B09F46CC0F12C63
:10306000EE24E394E8012196F8018491843740F43A
:10307000843008F051C0813081F0823019F15BC09A
:10308000853709F444C0A8F19CE7980F903708F001
:1030900052C08F770E946F1141C00E5F1F4FFE011B
:1030A000849190E2980F983050F48770FE2D01C003
:1030B000FF0F8A95EAF78F2F0E94AF1A14C00E9463
:1030C000C0102DC00E5F1F4FFE01849190E2980F3B
:1030D000983060F48770FE2D01C0FF0F8A95EAF7E3
:1030E0008F2F0E94B51A0E94DA1A19C00E946F1120
:1030F00016C00E5F1F4FFE01C491CC2381F08FE9F3
:103100009FE00197F1F700C00000C150F6CF0E5FBD
:103110001F4FFE01F49003C00E94C0108E018F2D3E
:10312000882309F49FCFEFE9FFE03197F1F700C062
:1031300000008150F5CFDF91CF911F910F91FF904B
:10314000EF900895089508950C94A3180C94A41872
:103150000E94A618609357027093580280935902F8
:1031600090935A020C946A140C94A8180F931F930E
:1031700000915702109158022091590230915A0241
:10318000602B712B822B932B1F910F910C94A818FD
:103190000F931F93009157021091580220915902EA
:1031A00030915A0260237123822393231F910F9140
:1031B0000C94A8180F931F93009157021091580276
:1031C0002091590230915A02602771278227932754
:1031D0001F910F910C94A8180C94A3180E94EC183E
:1031E0006093530270935402809355029093560259
:1031F0000C946A1460E070E0CB010C94EE180F930D
:103200001F9341E050E060E070E08A019B0104C040
:10321000000F111F221F331F8A95D2F7C901B80171
:103220001F910F910C94EE180F931F9341E050E003
:1032300060E070E004C0440F551F661F771F8A9539
:10324000D2F78091530290915402A0915502B0910F
:1032500056028A019B01082B192B2A2B3B2BC901F3
:10326000B8011F910F910C94EE180F931F9341E03A
:1032700050E060E070E004C0440F551F661F771FE8
:103280008A95D2F74095509560957095809153023C
:1032900090915402A0915502B09156028A019B016F
:1032A000082319232A233B23C901B8011F910F9139
:1032B0000C94EE180F931F9341E050E060E070E033
:1032C00004C0440F551F661F771F8A95D2F780915F
:1032D000530290915402A0915502B09156028A0176
:1032E0009B01082719272A273B27C901B8011F91ED
:1032F0000F910C94EE180F931F93009153021091AD
:1033000054022091550230915602602B712B822B72
:10331000932B1F910F910C94EE180F931F93009114
:1033200053021091540220915502309156026023AD
:103330007123822393231F910F910C94EE180F9306
:103340001F93009153021091540220915502309125
:10335000560260277127822793271F910F910C94A3
:10336000EE180895292F220F920F990F890FE82F39
:10337000E695E695E695877051E001C0550F8A9570
:10338000EAF785E0E89FF0011124E45EFD4F20E0BC
:1033900030E070E04081CB01022E02C09695879507
:1033A0000A94E2F78170819584278523842781938D
:1033B0002F5F3F4F2530310569F70895292F220FE0
:1033C000920F990F890F682F669566956695982FCD
:1033D000977085E0689FB001112440E050E080E0E4
:1033E000FB01E40FF51FE45EFD4F208130E0092E64
:1033F00002C0369527950A94E2F721703327042EF0
:1034000001C0220F0A94EAF7822B4F5F5F4F4530CD
:10341000510531F70895BF92CF92DF92EF92FF925C
:103420000F931F93CF93DF938C01C0905302D090E2
:103430005402E0905502F09056028091570290910C
:103440005802A0915902B0915A02C82AD92AEA2AF0
:10345000FB2ACFE1D0E0D701C6010C2E04C0B695FF
:10346000A795979587950A94D2F780FD04C0219778
:1034700090F7B12C07C0BC2EB8018C2F0E944003DE
:103480000197A9F38B2DDF91CF911F910F91FF90A1
:10349000EF90DF90CF90BF900895CF93DF93EC0132
:1034A0000E940B1ABE010E944003DF91CF91089544
:1034B0001F93CF93DF93EB019091E301992321F0C8
:1034C000CB010E944D1A13C0882349F0CB010E9402
:1034D0000B1A182F682FCE010E94B21904C0CB011D
:1034E0000E94DE19182FBE01812F0E944003DF9138
:1034F000CF911F91089580915B0285958595859563
:10350000089580915B028770089590915B02977097
:1035100081E009F480E00895809167020895909118
:103520006702892B809367020895809590916702C6
:1035300089238093670208951092670208959091FD
:103540006602892B809366020895809590916602A9
:1035500089238093660208951092660208959091DF
:103560006502892B8093650208958095909165028C
:1035700089238093650208951092650208958091D1
:103580005C02089508950C94C21A0C94C31A909189
:103590005C02981721F080935C020C94C51A089580
:1035A00080915C02882329F010925C0280E00C94E8
:1035B000C51A0895E0910F01F09110018091670202
:1035C0008083E0910F01F09110019081809166025B
:1035D000892B8083E0910F01F091100190818091FF
:1035E0006502892B808380915C02882381F0E091C1
:1035F0000F01F09110019081892B808380910F0140
:10360000909110010E94ED1B81110E94D01A8091AF
:103610000F01909110010C94620F0C94C21A98E063
:10362000899F90011124262B20935B020E9414197C
:1036300080915B028595859585950C940D1B109264
:103640005B0280E00C940D1B20915B02809582232D
:1036500080935B02982F977079F430E0482F082E02
:10366000000C550B2417350739F085958595859500
:103670000E9435190C941F1B089580E0089580E086
:1036800090E00E947B2421E08B3E9E4F09F020E0D9
:10369000822F089582E090E00C94732483E090E000
:1036A0000C947324CF9384E090E00E947324C82F7D
:1036B00081E290E00E9473242C2F30E0A901582B66
:1036C000CA01CF910895CF93C92F682F84E090E06D
:1036D0000E9481246C2F81E290E0CF910C94812490
:1036E000AB01BC018FE090E00C949324AB01BC01D2
:1036F00083E190E00C94932460E070E0CB010C94A3
:10370000761B60E070E0CB010E94701B0C947C1B68
:103710006BEE7EEF80E090E00E949F2460E082E00C
:1037200090E00E94812460E083E090E00E94812488
:1037300010925702109258021092590210925A0297
:1037400060E084E090E00E94812460E081E290E00B
:103750000E94812460E085E090E00E94812460E086
:1037600086E090E00E9481246FEF87E090E00E9465
:10377000812440E050E0BA0188E090E00E94932468
:1037800060E08DE090E00E94812440E050E0BA01CA
:1037900088E190E00E94932460E087E190E00E943D
:1037A000812440E050E0BA018CE190E00E94932433
:1037B00060E080E290E00E94812440E050E0BA01A5
:1037C00088E190E00E9493240C94811B0C94881B48
:1037D000682F8EE090E00C948124FC01329697E0F3
:1037E00080E0915029F021912223D9F38F5FF9CF06
:1037F0000895662349F0FC013296089621916217DC
:1038000029F0E817F907D1F780E0089581E00895DD
:103810009C01FC0132969FEF80E04191461789F0B0
:103820009F3F19F4411101C0982F8F5F8630A9F78F
:103830009F3F39F0F901E90FF11D97FDFA95628379
:10384000089508959C012A5F3F4FFC014281461371
:1038500001C01282019682179307B9F708950C945C
:10386000081C0C94221C029626E0FC0111922A9559
:10387000E9F7089508950C943A1C0C943A1CCF93E0
:103880000E943D1C0E9404060E943B1CC0E08C2F3D
:103890000E942F05811104C0CF5FCE30C1F701C057
:1038A00081E0CF9108950C943A1C0C94531C8091A4
:1038B000A002843049F10E94551C80E00E94180348
:1038C0001092690220E488E190E00FB6F894A89580
:1038D000809360000FBE2093600083B7817F846077
:1038E00083BF83B7816083BF7894889583B78E7FC9
:1038F00083BF0FB6F894A89580916000886180938B
:103900006000109260000FBE08950C943A1C0E9453
:1039100084140E94560F0E9418030C94851C1F9259
:103920000F920FB60F9211248F939F93AF93BF9373
:1039300080916902811113C080919202909193024B
:10394000A0919402B09195024196A11DB11D809362
:10395000920290939302A0939402B0939502BF9128
:10396000AF919F918F910F900FBE0F901F90189560
:1039700082E084BD93E095BD9AEF97BD80936E0081
:1039800008952FB7F8948091920290919302A0919C
:103990009402B09195022FBF08952FB7F8946091CB
:1039A00092027091930280919402909195022FBFA0
:1039B00008959C014FB7F8948091920290919302E0
:1039C000A0919402B09195024FBF821B930B089572
:1039D00078941F920F920FB60F9211248F939F939A
:1039E000AF93BF938091920290919302A091940221
:1039F000B09195020196A11DB11D80939202909302
:103A00009302A0939402B0939502BF91AF919F91BE
:103A10008F910F900FBE0F901F90189510929602E5
:103A20001092970210929802109299020895CF92E4
:103A3000DF92EF92FF926B017C010E94C60681111A
:103A40000EC00E94CD1CC61AD70AE80AF90AC09215
:103A50009602D0929702E0929802F0929902FF901B
:103A6000EF90DF90CF9008950F931F930E94C606AA
:103A7000882321F01F910F910C94CD1C0E94CD1C26
:103A8000009196021091970220919802309199022C
:103A9000600F711F821F931F1F910F91089587E779
:103AA00097E790930108809300089AE088E10FB6A9
:103AB000F894A895809360000FBE90936000FFCFAC
:103AC00090939D0180939C0108950E943F1B81115A
:103AD00002C00E94E61B0E944A1B809368020E945B
:103AE000521B90939B0280939A020E944E1B682F58
:103AF00070E080E090E00E94B418609153027091F1
:103B0000540280915502909156020C94EC188091C9
:103B100072020895CF93DF9300D01F92CDB7DEB726
:103B20009091A002943019F589837B836A8382E0A7
:103B30008093E9008FEF9091E800815095FD06C0D9
:103B400095ED9A95F1F700008111F5CF8091E8008D
:103B500085FF0DC040E050E063E070E0CE010196CB
:103B60000E94A71F8091E8008E778093E8000F9055
:103B70000F900F90DF91CF910895BC0184E00C94D9
:103B80008A1DBC0183E00C948A1D22E02093E90089
:103B90002FEF3091E800215035FD06C035ED3A9504
:103BA000F1F700002111F5CF2091E80025FF0BC0AF
:103BB00040E050E066E070E00E94A71F8091E800BE
:103BC0008E778093E8000895CF93DF9321E02093D0
:103BD000E9002FEF3091E800215035FD06C035EDAA
:103BE0003A95F1F700002111F5CF2091E80025FF6B
:103BF00014C0EC0140E050E068E070E00E94A71FB4
:103C00008091E8008E778093E80088E0FE01AAE6C4
:103C1000B2E001900D928A95E1F7DF91CF9108957E
:103C200080919F02811109C00E9438210E94952134
:103C30008091E20084608093E200089510929F02D8
:103C4000089508950895089542E061EC81E00E948E
:103C5000B12042E261EC82E00C94B1208091A2029A
:103C6000833009F460C030F4813071F0823009F49F
:103C700099C008958A3009F485C08B3009F46BC06F
:103C8000893009F0A7C020C08091A102813A09F0D3
:103C9000A1C08091E800877F8093E8008091A50211
:103CA0009091A602892B21F468E08AE692E003C095
:103CB00060E080E090E070E00E94F21F8091E800F8
:103CC0008B778093E80008958091A102813209F0FA
:103CD00081C08091A5029091A602029708F07AC057
:103CE0008091E800877F8093E8008091E80082FD62
:103CF00005C08091A0028111F8CF6CC02091F30023
:103D00008091F20090E0922B029729F48091F100CB
:103D10008B7F813021F48091F10080937202809139
:103D2000E8008B7753C08091A102813A09F052C01C
:103D30008091A5029091A602892B09F04BC0809139
:103D4000E800877F8093E8008091E80080FFFCCF47
:103D500080911B0136C08091A1028132D9F58091FA
:103D6000A5029091A602892BA9F58091E800877F92
:103D70008093E8000E94E6208091A30280931B01BB
:103D80000C9484148091A102813221F58091E80085
:103D9000877F8093E8000E94E6208091A4028093B0
:103DA000730208958091A102813AA1F48091E80004
:103DB000877F8093E8008091E80080FFFCCF8091AE
:103DC00073028093F1008091E8008E778093E80081
:103DD0000C94E620089584B7877F84BF0FB6F894CB
:103DE000A8958091600088618093600010926000C7
:103DF0000FBE90E080E80FB6F89480936100909336
:103E000061000FBE0E94D00F0E9438210E949521B0
:103E10008091E20084608093E20078940E942A24DA
:103E20000E94DA0F81E191E00E94510F8091A0027F
:103E30008530A9F48091A002853079F40E94571C46
:103E400080919E028823B1F30E943F1C882391F346
:103E50000E94911F0E948414EDCF0E94871C0E9433
:103E6000E40F0E94C40F0E94C30FE0CF0C94381FD0
:103E7000292F332723303105C9F060F42130310573
:103E800081F02230310509F044C08BE390E026E355
:103E900033E043C021323105E1F02232310549F1EE
:103EA00038C082E190E021E733E037C099278130C4
:103EB000910549F028F0029761F5E4EFF2E005C0C2
:103EC000E2E3F3E002C0E2E2F3E0849190E09F01DC
:103ED00024C06115710541F061307105D1F489E0AC
:103EE00090E021E633E019C089E090E028E433E077
:103EF00014C06115710541F06130710551F48BE713
:103F000090E023E833E009C080E490E02EEF33E056
:103F100004C080E090E020E030E0FA0131832083AB
:103F2000089580E189BD82E189BD09B400FEFDCF1D
:103F30008091D8008F7D8093D8008091E0008260CE
:103F40008093E0008091E00081FDFCCF0895CF9246
:103F5000DF92EF92FF920F931F93CF93DF93EC01C9
:103F60008B017A010E940521811133C0E114F10413
:103F700039F0F70180819181081B190BC80FD91FF7
:103F8000C12CD12C0115110519F18091E80085FD96
:103F900016C08091E8008E778093E800E114F10468
:103FA00049F0F70180819181C80ED91ED182C0826B
:103FB00085E00FC00E940521882321F30AC0899162
:103FC0008093F10001501109FFEFCF1ADF0ADACF19
:103FD00080E0DF91CF911F910F91FF90EF90DF90E4
:103FE000CF9008952091A7023091A8022617370795
:103FF00048F06115710539F42091E8002E7720937F
:10400000E80001C0B901FC0120E06115710579F1FA
:104010008091A0028823F1F18530F1F18091E800D0
:1040200083FD3CC08091E80082FD2EC08091E800B5
:1040300080FFEBCF2091F3008091F20090E0922B73
:104040006115710551F08830910538F42191209364
:10405000F100615071090196F3CF21E0089709F052
:1040600020E08091E8008E778093E800CECF211188
:10407000CFCF0AC08091A002882361F0853061F023
:104080008091E80083FD0AC08091E80082FFF2CFB2
:1040900080E0089582E0089583E0089581E0089526
:1040A0002091A7023091A8022617370748F0611522
:1040B000710539F42091E8002E772093E80001C0C3
:1040C000B901FC0120E06115710591F18091A00218
:1040D000882309F440C0853009F43FC08091E8008E
:1040E00083FD3DC08091E80082FD2FC08091E800F3
:1040F00080FFE9CF2091F3008091F20090E0922BB5
:104100006115710559F08830910540F42491209390
:10411000F1003196615071090196F2CF21E00897C4
:1041200009F020E08091E8008E778093E800CBCF03
:104130002111CCCF0AC08091A002882361F0853084
:1041400061F08091E80083FD0AC08091E80082FF61
:10415000F2CF80E0089582E0089583E0089581E041
:104160000895982F973068F59093E900981739F0E3
:104170007091EC002091ED005091F00003C0242FCD
:10418000762F50E021FD02C09F5FECCF3091EB0015
:104190003E7F3093EB003091ED003D7F3093ED009A
:1041A0003091EB0031603093EB007093EC00209382
:1041B000ED005093F0002091EE0027FDE5CF80E068
:1041C00008958F708093E90081E008958091A102A5
:1041D00087FF11C08091E80082FD05C08091A00298
:1041E0008111F8CF11C08091E8008B770BC08091CE
:1041F000A002882349F08091E80080FFF8CF8091E9
:10420000E8008E778093E80008952091E4003091D3
:10421000E50095E64091EC00842F817040FF23C0BB
:104220008091E80080FD1DC08091A002882399F054
:10423000853099F08091EB0085FD11C04091E4003C
:104240005091E5002417350729F3915011F09A0198
:10425000E1CF84E0089582E0089583E0089581E04D
:10426000089580E008954091E80042FFDDCF089571
:104270000E94A6210E94AE21E0EEF0E080818160E4
:104280008083E8EDF0E080818F77808319BCA7ED13
:10429000B0E08C918E7F8C9380818F7E8083109292
:1042A0009F0208950F931F93CF93DF930E94A6213F
:1042B0000E94AE21C8EDD0E088818F778883888105
:1042C0008068888388818F7D888319BC1092A002C2
:1042D00010929C0210929E0210929D0200EE10E03D
:1042E000F80180818B7F808388818160888342E0B0
:1042F00060E080E00E94B120E1EEF0E080818E7FFE
:104300008083E2EEF0E0808181608083808188603C
:104310008083F80180818E7F80838881806188839B
:10432000DF91CF911F910F910895E8EDF0E080812A
:104330008F7E8083E7EDF0E080818160808384E080
:1043400082BF81E080939F020C945221E8EDF0E05F
:1043500080818E7F80831092E20008951092DA00AF
:104360001092E10008951F920F920FB60F92112440
:104370002F933F934F935F936F937F938F939F936D
:10438000AF93BF93EF93FF938091E10082FF0BC047
:104390008091E20082FF07C08091E1008B7F8093D3
:1043A000E1000E9429248091DA0080FF1FC08091E3
:1043B000D80080FF1BC08091DA008E7F8093DA00E6
:1043C0008091D90080FF0DC080E189BD82E189BD67
:1043D00009B400FEFDCF81E08093A0020E94101E70
:1043E00005C019BC1092A0020E941E1E8091E1001F
:1043F00080FF19C08091E20080FF15C08091E2002B
:104400008E7F8093E2008091E20080618093E200E1
:104410008091D80080628093D80019BC85E0809399
:10442000A0020E94221E8091E10084FF30C0809192
:10443000E20084FF2CC080E189BD82E189BD09B41E
:1044400000FEFDCF8091D8008F7D8093D8008091B1
:10445000E1008F7E8093E1008091E2008F7E809367
:10446000E2008091E20081608093E20080919C02F2
:10447000882311F084E007C08091E30087FD02C02B
:1044800081E001C083E08093A0020E94231E8091FE
:10449000E10083FF29C08091E20083FF25C0809165
:1044A000E100877F8093E10082E08093A002109278
:1044B0009C028091E1008E7F8093E1008091E20078
:1044C0008E7F8093E2008091E20080618093E20021
:1044D00042E060E080E00E94B1208091F0008860BE
:1044E0008093F0000E94211EFF91EF91BF91AF9148
:1044F0009F918F917F916F915F914F913F912F91FC
:104500000F900FBE0F901F9018951F920F920FB62D
:104510000F9211242F933F934F935F936F937F9349
:104520008F939F93AF93BF93CF93DF93EF93FF93BB
:10453000C091E900CF708091EC00D82FD17080FD40
:10454000D0E81092E9008091F000877F8093F0001E
:1045500078940E94C9221092E9008091F00088604E
:104560008093F000CD2BCF70C093E900FF91EF91C5
:10457000DF91CF91BF91AF919F918F917F916F917B
:104580005F914F913F912F910F900FBE0F901F9011
:1045900018951F93CF93DF93CDB7DEB7AA970FB6C9
:1045A000F894DEBF0FBECDBFE1EAF2E08091F100EA
:1045B000819322E0E93AF207C9F70E942E1E80910A
:1045C000E80083FF2EC18091A1029091A202492FA1
:1045D00050E04A30510508F024C1FA01EC58FF4F71
:1045E0000C945924803821F0823809F01AC108C08F
:1045F00080919D0290919E02992389F082600FC064
:104600008091A5028F70873008F00BC18093E9007C
:104610008091EB0085FB882780F91092E90090914A
:10462000E800977F9093E8008093F1001092F100EA
:10463000D1C0282F2D7F09F0F4C0882319F08230D3
:1046400061F0EFC08091A302813009F0EAC093309D
:1046500009F080E080939E022EC08091A302811118
:104660002AC08091A5028F702FEF280F263008F006
:10467000D8C08093E9002091EB0020FF1CC093304C
:1046800021F48091EB00806214C09091EB00906166
:104690009093EB0021E030E0A90102C0440F551FC8
:1046A0008A95E2F74093EA001092EA008091EB00CD
:1046B00088608093EB001092E9008091E800877F8A
:1046C0008093E8000E94E620ACC08111AAC010913E
:1046D000A3021F778091E3008078812B8093E30011
:1046E0008091E800877F8093E8000E94E620809117
:1046F000E80080FFFCCF8091E30080688093E300B6
:10470000111102C082E001C083E08093A00289C041
:104710008058823008F085C08091A3029091A40255
:104720008C3D53E0950779F583E08A838AE289839B
:104730004FB7F894DE01139620E03EE051E2E32FFC
:10474000F0E050935700E49120FF03C0E295EF7032
:104750003F5FEF708E2F90E0EA3010F0C79601C0F7
:10476000C0968D939D932F5F243149F74FBF809161
:10477000E800877F8093E8006AE270E0CE0101964E
:104780000E94F21F16C06091A5027091A602AE01B0
:104790004F5F5F4F0E94361FBC01892B09F441C057
:1047A0009091E800977F9093E80089819A810E9418
:1047B00050208091E8008B778093E80032C08038E9
:1047C00081F58091E800877F8093E80080919C02CA
:1047D0008093F1008091E8008E7772CF811121C023
:1047E0008091A3029091A40299270297D4F480911A
:1047F000E800877F8093E8008091A30280939C0269
:104800000E94E62080919C02811106C08091E30005
:1048100087FD02C081E001C084E08093A0020E9475
:10482000241E8091E80083FF0AC08091E800877F02
:104830008093E8008091EB0080628093EB00AA9661
:104840000FB6F894DEBF0FBECDBFDF91CF911F91A1
:1048500008950895CF938091A0028823A1F0C0917C
:10486000E900CF709091EC00892F817090FD80E875
:10487000C82B1092E9008091E80083FD0E94C922B4
:10488000CF70C093E900CF91089597FB072E16F4DF
:10489000009407D077FD09D00E945F2407FC05D063
:1048A0003EF4909581959F4F0895709561957F4F47
:1048B0000895EE0FFF1F0590F491E02D0994AA1BB7
:1048C000BB1B51E107C0AA1FBB1FA617B70710F0FB
:1048D000A61BB70B881F991F5A95A9F7809590952D
:1048E000BC01CD010895F999FECF92BD81BDF89A22
:1048F000992780B50895A8E1B0E042E050E00C941B
:10490000A724262FF999FECF92BD81BDF89A019771
:1049100000B4021639F01FBA20BD0FB6F894FA9A07
:10492000F99A0FBE08950396272F0E9482240E94B1
:104930008124252F0E948224242F0C948224019606
:10494000272F0E9482240C948124DC01CB01FC01DE
:10495000F999FECF06C0F2BDE1BDF89A319600B4D8
:0E4960000D9241505040B8F70895F894FFCFE3
:10496E00012808643C0714B80104B90107BD015DB4
:10497E0002871DE41DC51DC11DBD1D01E200E9001C
:10498E00EA00B500B600B700CD008301CC008A0165
:10499E0092019401210223022402250226022702FB
:1049AE002A02B300B4006F00700081828394669770
:1049BE00C63435F5F6F7313332360000000000000C
:1049CE000001020304050607080900E200E900EAF7
:1049DE0000B500B600B700CD008301CC008A01926D
:1049EE000194012102230224022502260227022A13
:0C49FE0002B300B4006F007000818283DF
:00000001FF
