:100000000C94D3010C94300E0C941A020C941A0226
:100010000C941A020C941A020C941A020C941A02F0
:100020000C941A020C941A020C9495200C946921D9
:100030000C947A1B0C941A020C941A020C941A0257
:100040000C941A020C941A020C941A020C941A02C0
:100050000C941A020C94D11B0C941A020C941A02E0
:100060000C941A020C941A020C941A020C941A02A0
:100070000C941A020C941A020C941A020C941A0290
:100080000C941A020C941A020C941A020C941A0280
:100090000C941A020C941A020C941A020C941A0270
:1000A0000C941A020C941A020C941A0229001E00D5
:1000B0001F002000210022002B0014001A0008005D
:1000C00015001700E10004001600070009000A00EF
:1000D000E0001D001B0006001900050000000000E4
:1000E0002F00300002512C00000000002A003500D3
:1000F0002B004A00230024002500260027002A00A8
:100100001C0018000C00120013002D000B000D0045
:100110000E000F00330034001100100036003700CD
:1001200038003100280001512E022E00000000008E
:100130004D004C00E300E2000000000035021E020A
:100140001F02200221022202010001000100010021
:1001500001002F0001004A004B004E004D00260216
:100160000100010001000100010001000000000089
:100170000100460001000100000000000100010034
:1001800001000100230224022502260227024C005E
:1001900030005F006000610001002E0227025C0059
:1001A0005D005E002D003102010059005A005B0025
:1001B0002E002D020100010001006200000000007D
:1001C00001000100010001000000000045003A00AC
:1001D0003B003C003D003E00010001000100010029
:1001E00001002F0001005000520051004F00260274
:1001F00001000100010001000100010000000000F9
:1002000001000100010001000000000001000100E8
:10021000010001003F004000410042004300440053
:1002200030000100530049004700A8002702AC003D
:10023000AE00AB000100A9000100010001000100B7
:100240000100AA00010001002E00010000000000D2
:100250000100010001000100000000002C03440027
:1002600061006300740079006C002D004D00610096
:100270006E00750066006F0072006D00200028009F
:10028000350078003600290000000E03740073006A
:1002900068006F0072007400000004030904090282
:1002A0003B00020100A0FA09040000010301010063
:1002B0000921110100012240000705810308000AFD
:1002C00009040100010300000009211101000122BD
:1002D0007B000705820320000A12011001000000C4
:1002E000084D44363501000102000105010902A153
:1002F0000185020901A10005091901290815002538
:100300000195087501810205010930093115812522
:100310007F95027508810609381581257F9501753D
:10032000088106050C0A38021581257F950175089C
:100330008106C0C005010980A101850319012AB702
:1003400000150126B700950175108100C0050C0944
:1003500001A101850419012AA002150126A0029518
:100360000175108100C005010906A101050719E00A
:1003700029E7150025019508750181029501750889
:1003800081010507190029FF150026FF0095067554
:100390000881000508190129059505750191029547
:1003A0000175039101C011241FBECFEFDAE0DEBF5B
:1003B000CDBF04B603FE27C08091960290919702AC
:1003C000A0919802B09199028730904BA740B04B12
:1003D000D1F4109296021092970210929802109205
:1003E000990214BE84B7877F84BF0FB6F894A8958E
:1003F00080916000886180936000109260000FBE61
:10040000E0E0F8E3099511E0A0E0B1E0EAE6F7E406
:1004100002C005900D92AA39B107D9F722E0AAE9E6
:10042000B1E001C01D92A639B207E1F70E94CF1DCD
:100430000C948B230C9400000C94E20481E008954A
:1004400081E008950C94200208950C9424021F93D7
:10045000CF93DF9300D000D00F92CDB7DEB74983A2
:100460005A836B833091DE0189819A8131111DC0DD
:100470006623B9F02223A9F00E94E418182F682FF0
:1004800089819A810E948D1869817A81812F0F90CC
:100490000F900F900F900F90DF91CF911F910C94C0
:1004A000D7020E94BB18182FEFCF0E94E418698171
:1004B0007A81EDCFFC01262F4081518162817381C9
:1004C00084810C942702CF93DF93EC0160E00E94BB
:1004D0005A02BE01DF91CF910C9425020E942A1A84
:1004E000811102C00E94CE1A0C941C020C94E404E8
:1004F00008950E94BB130E9478022FEF84E39CE0D2
:10050000215080409040E1F700C000000C94361C60
:100510000F931F93CF93DF93EC0161E00E945A0287
:100520008C01BE010E942202882329F1BE01C8016C
:100530000E94920B8823F9F0BE01C8010E94E40BCF
:100540008823C9F0BE01C8010E94070D882399F0D5
:100550008A81882339F001158CE5180751F00F3D89
:100560001C4579F0CE01DF91CF911F910F910C9432
:100570001E020E94790280E0DF91CF911F910F91BE
:1005800008950E94CE1AF7CF08950C94C40281E01A
:1005900008950C94C702CF93C82F0E94C5028C2FD8
:1005A000CF910C94C90290E080E008950895972FB0
:1005B00070E026E0929F600D711D1124FB0198E40C
:1005C000899FE00DF11D1124EE0FFF1FE455FF4F31
:1005D000859194910895FC01EE0FFF1FE45AFD4FA1
:1005E000859194910895CF93DF930E94D7020E9442
:1005F0000804EC01811520E5920708F042C081153E
:1006000030E4930708F0BDC0883E910528F5803E90
:10061000910508F09DC0883A910588F4853A9105C6
:1006200008F08FC08130910509F492C0009709F459
:100630008FC0049708F08CC0D0E0C0E089C08F3B29
:10064000910508F489C0805C9109C03CD105A0F3F4
:100650000E94EB02EC017CC08115904250F4C11560
:1006600081E0D80708F074C0CD3ED10528F3D065ED
:100670006FC0C11590E3D90708F079C0CE019F7013
:10068000E7CF811525E5920758F5811534E59307E5
:1006900008F0A6C0811542E5940750F4C11581E524
:1006A000D80708F471C0DC2FCC27C16FD06A50C0C6
:1006B000982F969596959E0123703327C115D345A3
:1006C00008F07FC0C1E0D0E002C0CC0FDD1F2A954A
:1006D000E2F720E2929FC0011124C82BD92B6FC0F2
:1006E000C11589E5D807A8F4C11598E5D90708F020
:1006F0007CC0C11526E5D20708F09ECF8C2F0E9442
:100700009F04C82FD0E0DC2FCC27CC27DF71D0622C
:100710001FC0C1153AE5D30708F46CC0CE0190564E
:100720008115904208F088CF8D2F8F710E949F0411
:1007300090E0982F882788279F719C012C2BE90136
:10074000E6CFC55AD0E0C65BDE4FC881D0E0D064AA
:10075000CE01DF91CF910895C85AD0E0CC0FDD1FB4
:10076000C45EDE4F0990D881C02DD464F1CFCE0194
:100770009927D3FF03C0EC01D86CEACFEC01D06C11
:10078000E7CFDF70D06AE4CFCE01E4E0969587959D
:10079000EA95E1F783702C2F26952695237090E239
:1007A000299F90011124382B8C2F8370C1E0D0E059
:1007B00002C0CC0FDD1F8A95E2F7C22BD32BDC6879
:1007C000C7CFC1E0D0E002C0CC0FDD1F2A95E2F711
:1007D00030E2939FC0011124C82BD92BDA68B8CF1F
:1007E000D82FCC27C46FD06AB3CFDC2FCC27C06FF3
:1007F000D06AAECF8C2F8F700E949F0434E0D695C4
:10080000C7953A95E1F7CF709C2FEC01D069A0CF46
:1008100082389105B1F1B0F48133910509F475C0C6
:1008200048F48932910509F469C08A32910509F4C6
:1008300073C008958533910509F459C08933910532
:1008400001F10895833E9105A9F138F4803E9105A8
:10085000F9F0823E910549F10895863E9105A9F18E
:10086000873E9105C9F1843E910519F520918802D2
:1008700021FF1FC08091870284FD14C087EE90E0A5
:100880000895209187022370A1F080EE90E00895F2
:100890002091870220FD47C03091880230FF09C0B7
:1008A00024FF44C090E080E004C02091870222FD34
:1008B000F7CF08952091870222FD3BC03091880236
:1008C00030FDE3CF24FFF5CFEDCF2091870223FF4A
:1008D000F0CF24FDE7CFD2CF2091870223FD2CC09B
:1008E0003091880231FFEECF84EE90E008952091A0
:1008F000870225FFDECF89E290E0089520918702EC
:1009000025FFD7CF85E390E008952091870226FF49
:10091000D0CF8AE290E008952091870226FFC9CFC8
:1009200081E390E0089589E390E0089583EE90E0FC
:10093000089582EE90E0089586EE90E008959091FB
:10094000870292FF06C0282F28712830F9F4877F8C
:10095000846093FF06C0282F28712831F1F4877E28
:1009600084612091880220FF06C0382F387138300A
:10097000D9F4877F816021FF06C0282F2871283194
:10098000D1F4877E816194FD877E0895282F24719C
:100990002430F9F68B7F8860DCCF282F2471243136
:1009A00001F78B7E8861DDCF382F3171313019F737
:1009B0008E7F8860E0CF282F2171213121F78E7E34
:1009C0008861E1CF089508950C94E304E82FF0E0E6
:1009D000EF58FD4F80810895089580EA8A95F1F7D8
:1009E000089500C008950C94ED04F894E82FE29562
:1009F000EF70F0E031A1282F2F7081E090E001C06E
:100A0000880F2A95EAF7982F9095932391A392A1A6
:100A1000892B82A37894089508950E949806809166
:100A200000018091000196E0811190E090937E0298
:100A300086E0891B80937D0286EF0E94F50487EF94
:100A40000E94F50481E30E94F50483E30E94F5040B
:100A500082E30E94F50486E30E94F50484E90E9483
:100A6000F50486E60E94F50487E90E94F50486EC09
:100A70000E94F50484E30E94F50485E30E94F504D6
:100A8000E5E6F2E0A1E7B2E011921D9282E0E137E3
:100A9000F807D1F786E00E9443060E946E020C948C
:100AA000A206FF920F931F93CF93DF9300D000D045
:100AB00000D0CDB7DEB70E947A06F82E60917E0294
:100AC000882309F451C08E010F5F1F4F86E0F801A3
:100AD00011928A95E9F7862F90E0B8018F589D4FC3
:100AE0000E943D0D811123C080919C018F5F8093F6
:100AF0009C018630B8F1E0917D02F0E0EF58FD4FA7
:100B0000D801CE01079611921D92A817B907D9F7FF
:100B10000E9476028F2D26960FB6F894DEBF0FBE88
:100B2000CDBFDF91CF911F910F91FF90089510924B
:100B30009C01A0917D02B0E0AF58BD4F9E01295F9E
:100B40003F4FF12C4D91F80191918F01491731F0F0
:100B5000AD0141505109FA019083F82E0217130795
:100B600089F7D6CFF12CD4CF70E06F587D4F8091AC
:100B70007D0290E08F589D4F0E94640D0E940C05ED
:100B8000C9CFCF92DF92EF92FF920F931F93CF9333
:100B9000DF9303E511E085E6E82E82E0F82EC0E061
:100BA000CC24C394D12CF80181918F01F894E82FC3
:100BB000E295EF70F0E021A18F70A60102C0440F12
:100BC000551F8A95E2F7CA01922F982B91A392A103
:100BD0008095892382A378940E94F104EDE4F1E0EA
:100BE00030E020E0D0E04191A42FA295AF70B0E0BA
:100BF00090968C9190E04F7002C0959587954A959C
:100C0000E2F780FD3CC08C2D022E01C0880F0A94B3
:100C1000EAF7D82B2F5F3F4F2630310521F7F80137
:100C2000319780810E94F5040E94F304F7018081CE
:100C3000D81739F1D08381E0C82BFFEFEF1AFF0AF4
:100C400041E00935140709F0AECF60917E0270E0F3
:100C50006F587D4F2C2F46E085E692E00E944406B7
:100C60000E945105C11101C0C82F8C2FDF91CF9177
:100C70001F910F91FF90EF90DF90CF90089580E04B
:100C8000C8CF80E0D9CF0895FF920F931F93CF93E1
:100C9000DF93F82E092F162FD72FC42F222349F0C8
:100CA00081E080939F010E94AA1B90939E018093F4
:100CB0009D0180919F018823A1F080919D019091D9
:100CC0009E010E94C21B069760F0EF2DF02FA12F0E
:100CD000BD2FCE0FDF2FD11DEC17FD0741F4109271
:100CE0009F01DF91CF911F910F91FF900895819106
:100CF0008D93F2CF8091A001811111C08091D80015
:100D000080618093D8008AE18A95F1F700C09091C4
:100D1000D900892F817090FF82E08093A00181E04B
:100D20009091A001913009F080E008950C947A062A
:100D30000E949606809300010E947A0681110C940D
:100D4000310D08950E947A06811102C00C94370D6E
:100D50000895833081F128F4813059F08230D1F048
:100D60000895853009F449C0B8F1863009F456C0B9
:100D700008958091A401482F460F5527551F4F3FD6
:100D8000510524F4680F6093A40108958FEF8093B8
:100D9000A401089580910601482F460F5527551F3D
:100DA0004F3F510524F4680F6093060108958FEFBB
:100DB00080930601089580910501482F460F55271D
:100DC000551F4F3F510524F4680F609305010895A6
:100DD0008FEF80930501089580910401482F460FFD
:100DE0005527551F4F3F510524F4680F60930401A8
:100DF00008958FEF80930401089580910201482F98
:100E0000460F5527551F4F3F510524F4680F609337
:100E1000020108958FEF80930201089580910101EE
:100E2000482F460F5527551F4F3F510524F4680F93
:100E30006093010108958FEF80930101089583303D
:100E400011F128F4813049F0823091F00895853015
:100E500081F120F18630C1F108958091A4016817D5
:100E600020F4861B8093A40108951092A401089594
:100E700080910601681720F4861B8093060108956F
:100E800010920601089580910501681720F4861BD1
:100E90008093050108951092050108958091040141
:100EA000681720F4861B80930401089510920401B2
:100EB000089580910201681720F4861B8093020137
:100EC000089510920201089580910101681720F49D
:100ED000861B8093010108951092010108950F93DC
:100EE0001F9341E050E060E070E08A019B0104C084
:100EF000000F111F221F331F8A95D2F7C901B801B5
:100F00000E948F171F910F910C94BB138B3109F422
:100F100061C040F58B3071F078F4863009F443C03D
:100F200020F4853059F180E00895873009F444C0F9
:100F30008830C9F781E00895803109F459C068F418
:100F40008E3089F790915902892F8B7F92FF8460B0
:100F50008093590282FD48C0EDCF863159F3893123
:100F600049F3E1CF8A32E1F060F48732A9F020F44E
:100F70008E31C8F28D5111C08932A9F60E947902D2
:100F8000D9CF833438F48A33F0F5853329F08833A8
:100F900089F2C9CF833439F680E00E946F07CACF47
:100FA0000E94CE1AC7CF80915902807F8093590248
:100FB00081E08093A201089590915902892F8E7F3C
:100FC00090FF81608093590280FDB4CF817F809330
:100FD0005902B0CF90915902892F8D7F91FF826085
:100FE0008093590281FFA6CF809159028160EFCF93
:100FF00090915902892F877F93FF886080935902CF
:1010000083FDF2CF97CF8953C8CF80E008950C9429
:1010100005088E518A3030F4E82FF0E0E15AFE4F97
:101020008081089580E00895CF93C82F8091A20118
:101030008130B9F0882331F08230A1F11092A20101
:1010400080E00DC00E9479198232D1F78C2F0E9466
:10105000050881111BC08C2F0E9486078170CF91DB
:1010600008950E947919823289F38C2F0E94070813
:1010700081110AC0C43199F060F4CB3029F0C0313D
:1010800069F782E08093A20181E0E8CF81E090E0FF
:10109000E5CFC93221F0C833B9F380E0DFCF109239
:1010A000A201FBCFC93219F188F4C43101F120F457
:1010B000C73081F181E0D3CF82EE8C0F8630D0F73C
:1010C0008C2F0E9409088093A101F4CFCE3401F146
:1010D00040F46AE0CB3471F78091A1010E94A90627
:1010E000E9CFC13579F061E0C235B1F3E3CF80914A
:1010F000A101882319F01092A101DCCF81E0809337
:10110000A201ADCF61E08091A1010E941F07D2CF63
:101110006AE0F9CF1092A40184E180930601C093A4
:1011200005018CE38093040188E08093020188E24A
:1011300080930101BFCF8091AB0180FF12C060910D
:10114000050185E0689FB001112475956795759537
:10115000679560387105A8F561157105A1F1862FB5
:10116000089581FF09C06091050185E0689FB00185
:10117000112475956795EDCF6091050182FD0AC038
:101180008091AA018823D1F090910401609105011A
:10119000891728F085E0689FB0011124DACF869F77
:1011A000B001112485E0869F9001879F300D1124A6
:1011B000692F70E0C9010E941B23CBCF65E070E06E
:1011C000CECF8FE7089581E008958091AB0180FF35
:1011D0000CC06091020170E07595679575956795F3
:1011E0006115710549F1862F089581FF06C0609150
:1011F000020170E075956795F3CF6091020182FD61
:101200000BC09091A9019923A1F0609101018091F7
:101210000201961738F0682F70E06038710500F30E
:101220008FE70895899FC001112470E00E941B235D
:10123000F4CF61E070E0D7CF81E008958D3E31F4C6
:101240000E949B0881958093AF0108958E3E19F40A
:101250000E949B08F8CF8F3E31F40E949B08819535
:101260008093AE010895803F19F40E949B08F8CF47
:10127000893F29F40E94E5088093B00108958A3FD0
:1012800021F40E94E5088195F7CF8B3F31F40E944D
:10129000E50881958093B10108958C3F19F40E946F
:1012A000E508F8CF9FE0980F983070F4815F990BB4
:1012B00021E030E001C0220F8A95EAF78091AD016C
:1012C000822B8093AD0108958D3F31F48091AB0165
:1012D00081608093AB0108958E3F21F48091AB0132
:1012E0008260F7CF8F3FB9F78091AB018460F1CF77
:1012F0004091AE018D3E59F48091AF0187FF0DC042
:101300001092AF0141110BC01092AA0108C08E3E8D
:1013100081F48091AF0118169CF3442381F08091F1
:10132000B0019091B101892B09F05AC01092A90126
:1013300008958F3E49F447FFF0CF1092AE0180919F
:10134000AF018111ECCFE0CF803F19F41416ACF35C
:10135000E4CF9091B001893F29F41916F4F6109268
:10136000B001DBCF8A3F19F497FFD7CFF8CF909128
:10137000B1018B3F29F497FFD0CF1092B101CDCFAF
:101380008C3F19F41916CCF3C8CF9FE0980F983012
:1013900090F4815F990B21E030E0B90102C0660F43
:1013A000771F8A95E2F7CB0180959091AD01892353
:1013B0008093AD01B2CF8D3F31F48091AB018E7F30
:1013C0008093AB01AACF8E3F21F48091AB018D7F3A
:1013D000F7CF8F3F09F0A1CF8091AB018B7FF0CF8A
:1013E00008950E94AA1B9C019091AE018091AF01CB
:1013F000982B21F03093A8012093A7019091B00180
:101400008091B101982B21F03093A6012093A50182
:101410008CEA91E00C94EB0EEF92FF920F931F93E6
:10142000CF93DF9300D000D000D0CDB7DEB786E0F9
:10143000ECEAF1E0DE01119601900D928A95E1F758
:10144000E090AE01F090AF010091B0011091B101B8
:101450001092AE011092AF011092B0011092B10142
:101460008E2D8F2991F08091A7019091A8010E9463
:10147000C21BAC019091AA01992309F43FC080914D
:1014800006018417150608F447C0802F812B91F0C0
:101490008091A5019091A6010E94C21BAC01909180
:1014A000A901992309F477C08091030184171506D7
:1014B00008F47FC08091AE019091AF01892B90918B
:1014C000B001892B9091B101892B11F00E94F10993
:1014D00086E0FE013196ACEAB1E001900D928A956A
:1014E000E1F726960FB6F894DEBF0FBECDBFDF91B1
:1014F000CF911F910F91FF90EF9008952091A4013B
:101500008AE0289F900111242417350708F0BDCFE9
:101510009F5F9093AA0102C09F3FD1F7EE2059F040
:101520000E949B089FEF1E140CF491E0899F802D70
:1015300011248093AE01FF2059F00E949B089FEF79
:101540001F140CF491E0899F802D11248093AF012A
:101550003091AE01332309F498CF2091AF012223BB
:1015600009F493CF45EB3403C0011124992359F0BA
:101570009093AE0145EB240390011124332339F0FD
:101580003093AF0182CF81E08093AE01F3CF81E051
:101590008093AF017ACF2091A3018AE0289F900128
:1015A00011242417350708F085CF9F5F9093A90178
:1015B00002C09F3FD1F7002359F00E94E5089FEF3A
:1015C00010160CF491E0899F802D11248093B001B6
:1015D000112359F00E94E5089FEF11160CF491E0D9
:1015E000899F802D11248093B1013091B001332364
:1015F00009F460CF2091B101222309F45BCF45EBC0
:101600003403C0011124992359F09093B00145EBA4
:10161000240390011124332339F03093B1014ACFD0
:1016200081E08093B001F3CF81E08093B10142CF9C
:1016300086E0ECEAF1E0DF011D928A95E9F710926D
:10164000AA011092A9011092AB0108950F931F9364
:10165000CF93DF93C42FD22FFC0182818823C9F05E
:101660004093B4010E94AA1B9093B3018093B201EE
:1016700080E28C0F883008F050C0C77081E001C054
:10168000880FCA95EAF7DF91CF911F910F910C94C3
:1016900042111091B401141335C08091B2019091A0
:1016A000B3010E94C21B883C910560F5C0E2CD0FDA
:1016B0001D17B9F080E2810F883040F4177081E087
:1016C00001C0880F1A95EAF70E944911C83048F402
:1016D00081E09D2F977001C0880F9A95EAF70E94CC
:1016E0004211802F0E943A11C830B8F4D77081E0BF
:1016F00001C0880FDA95EAF7DF91CF911F910F9122
:101700000C94491180E28C0F883038F4C77081E066
:1017100001C0880FCA95EAF7EFCFDF91CF911F91F3
:101720000F9108950F939C01CB01243F4CE53407A2
:1017300059F1A8F4293DFCE53F0701F12A3D4CE5AC
:101740003407D1F1283D3C4591F406E221EE41EE0B
:1017500068ED7CE50E94260B80E00F910895263FFE
:10176000FCE53F07E9F0B0F0273F3C45F9F0FC010C
:101770008281882339F11092B401EFCF07E225EE80
:1017800045EE69ED7CE5E6CF06E221EE40EE64EF42
:101790007CE5E0CF07E225EE44EE65EF7CE5DACFAD
:1017A00006E221EE42EE66EF7CE5D4CF07E225EEBD
:1017B00046EE67EF7CE5CECF08E221E045EE6AED2C
:1017C0007CE5C8CF81E0C9CFCF93DF93EC01FB016B
:1017D0008281882309F419C1C230FCE5DF07C0F11A
:1017E000C6319CE5D90730F09E012B5F3C4529307E
:1017F000310570F50E943D1A90938802809387020C
:10180000C031ECE5DE0709F4CFC008F05BC0C8309A
:101810008CE5D80709F4B6C088F5C430ECE5DE07DE
:1018200009F4A8C0C0F4C2308CE5D80709F49CC004
:10183000809187028260C330DC4509F498C08091B2
:101840008702909188020E944B1A0E94BB1380E08D
:10185000DF91CF910895809187028061C630ECE5D9
:10186000DE0709F484C0809187028860C730DC45B8
:1018700008F47DC080918702806279C0CC308CE50D
:10188000D80709F489C070F4809187028C60CA304F
:10189000ECE5DE0709F46BC008F478C0809187029C
:1018A0008E7F65C0CE308CE5D80709F479C0809171
:1018B00087028B7FCF30DC4508F459C080918702C6
:1018C0008F7E55C0CC3FECE5DE0709F457C030F5FC
:1018D000C3318CE5D80709F46FC078F4C131ECE569
:1018E000DE0709F465C0C231DC4509F0A8CF0E94CB
:1018F000BB13809187028F773AC0C5318CE5D8073A
:1019000009F462C008F476C0809188028160CB3F00
:10191000DC4509F094CF8093880291CFC115FDE595
:10192000DF0709F44DC088F4809188028D7FCE3F97
:101930009CE5D90781F3809188028E7FCF3FDC45FB
:1019400050F3809188028360E6CFC230FDE5DF0767
:1019500009F459C008F444C080E0C330DD4509F003
:101960006ECF0E94D01A6BCF8091870281608093E6
:10197000870265CF809187028460F9CF80918802C9
:101980008260C9CF809187028064F1CF0E94BB132F
:10199000809187028068EBCF809187028D7FE7CFAF
:1019A00080918702877FE3CF809187028F7DDFCF91
:1019B000809187028F7BDBCF80918702837FD7CF97
:1019C000809188028C7FA7CF8091870282FB992724
:1019D00090F921E0922790FB82F990FB83F9C7CF21
:1019E00080918802982F909591708E7F892B90FB23
:1019F00081F991CF0E94BB1390918702892F97FBA9
:101A000087F98058B4CF81E0ACCF81E021CFCF936C
:101A1000DF93EB0186319C4511F50E9479199A817B
:101A2000992399F08A7A91E009F490E09093B501B6
:101A3000811109C089E20E9454190E94C51980E0F1
:101A4000DF91CF91089585E3F6CF8091B5018111A3
:101A500004C089E20E945B19F0CF85E3FBCF81E0EF
:101A6000EFCF61E070E087E091E00C94E10D61E080
:101A700070E087E091E00C94E80DCF93DF93D62FD0
:101A8000C72F0E94820E0097E9F4ED2FFC2FDC0196
:101A9000A554BE4F2C912193019686309105B9F73C
:101AA0000E941B1C6E5F7F4F8F4F9F4F6093B7014B
:101AB0007093B8018093B9019093BA0181E0DF91EE
:101AC000CF91089580E0FBCFCF93DF93D62FC72F20
:101AD0006091B7017091B8018091B9019091BA01FC
:101AE0000E94FE1BED2FFC2F90E080E02191DC0195
:101AF000A554BE4F2C93019686309105B9F7DF911E
:101B0000CF9108958EE1489B02C08150E1F7489B38
:101B1000FECF0895589880E28A95F1F7589A089573
:101B2000FC013BE03A95F1F798E020E080E031E0FD
:101B300040E14A95F1F7880F489B02C08160232756
:101B400042E04A95F1F7000040E14A95F1F79150E3
:101B500079F790E19A95F1F799B132E03A95F1F77A
:101B6000000040E14A95F1F7917092272081920F91
:101B700090830895EF92FF920F931F93CF93DF937B
:101B80000F92CDB7DEB719828C017C01E60EF11CF5
:101B90000E151F0561F481E09981911180E00F908D
:101BA000DF91CF911F910F91FF90EF9008950E94C8
:101BB000820DCE0101960E94900DF80181938F0154
:101BC000E7CF9093C2018093C101509A589A08952B
:101BD0009093C2018093C1015098589AE89AE9E61F
:101BE000F0E080818C7F808308956150770B91E0D5
:101BF00001C0990F6A95EAF720E031E0911108C021
:101C0000222391F0589A80E28A95F1F75898089526
:101C1000492F482339F0589A232740E24A95F1F793
:101C20009695ECCF5898F9CF5898EDCFFF920F9337
:101C30001F93CF93DF93EC018C01060F111DC0178A
:101C4000D10731F4DF91CF911F910F91FF9008954B
:101C5000F9900E948A0D68E08F2D0E94F50DEFCF5C
:101C60001F920F920FB60F9211242F933F934F9311
:101C70005F936F937F938F939F93AF93BF93CF9314
:101C8000DF93EF93FF935898509AC091C101D09180
:101C9000C2016D81662321F08E819F810E94160E04
:101CA0000E948A0D80E18A95F1F758985098589AC9
:101CB00080E18A95F1F76A81662309F18B819C8125
:101CC0000E94BA0DE881F981882311F088E001C0F3
:101CD00082E080830E94820DFF91EF91DF91CF918E
:101CE000BF91AF919F918F917F916F915F914F9134
:101CF0003F912F910F900FBE0F901F901895E88184
:101D0000F981E4CFCF93DF93C091C101D091C2019B
:101D1000F894509A589885E08A95F1F70000509809
:101D2000589A80E28A95F1F7489B0CC0509A589ACD
:101D3000E881F98181E08083789481E090E0DF910F
:101D4000CF9108956D81662381F08E819F810E94DD
:101D5000BA0D81110AC0509A589AE881F98182E03F
:101D60008083789482E090E0EACF0E94820D80E246
:101D70008A95F1F75898509A80E18A95F1F76A812F
:101D8000662321F08B819C810E94160E0E948A0D91
:101D9000E881F9811082789490E080E0D0CF909330
:101DA000C8018093C7010895E091C701F091C8016F
:101DB000309721F00190F081E02D099480E00895A2
:101DC000E091C701F091C801309721F00280F381C2
:101DD000E02D09940895E091C701F091C801309772
:101DE00039F022E0DC012C930480F581E02D099488
:101DF00008952091C5013091C6012817390771F067
:101E00009093C6018093C501E091C701F091C8018C
:101E1000309721F00680F781E02D099408952091F4
:101E2000C3013091C4012817390771F09093C401A0
:101E30008093C301E091C701F091C801309721F070
:101E40000084F185E02D099408950E94B61B6093EB
:101E5000DA017093DB018093DC019093DD016093E4
:101E6000D6017093D7018093D8019093D90108953A
:101E700085B7806885BF85B7806885BF0895089558
:101E800008950C943F0F08950C94430F0E94380F4F
:101E900088E29AE10E94471C0E94400F0C94410F77
:101EA0000C947A06089508950E94A11B0E94F51BC8
:101EB0000E940D050E944C1C0C94440FAF92BF92DF
:101EC000CF92DF92EF92FF920F931F93CF93DF9306
:101ED000CDB7DEB72A970FB6F894DEBF0FBECDBFE1
:101EE0000E94520F0E94530F0E94C10581110E944F
:101EF000250F8AECA82E81E0B82E10E000E0C02E5D
:101F0000802F0E94E604E82EF501F1905F01F8169B
:101F100009F44DC08091590281FD0E94EC048F2D7F
:101F20008E25D12CFF24F394982F9F21D9F10E9464
:101F3000500F882399F0DE82CF82EF2081E009F4F0
:101F400080E088870E94AA1B8160782F9A87898702
:101F50004E815F8168858A850E94FF0FF801E653F4
:101F6000FE4F8081F826F0820E940C0A0E94D40E57
:101F70009091C901891791F10E94D40E8093C901F3
:101F80002A960FB6F894DEBF0FBECDBFDF91CF917A
:101F90001F910F91FF90EF90DF90CF90BF90AF9087
:101FA0000C94CB02D394FF0CF6E0DF12BDCF0F5F91
:101FB0001F4F0C30110509F0A2CF8FEF89838A8360
:101FC0001B820E94AA1B8160782F9D838C8349818C
:101FD0005A816B818D810E94FF0FC6CF2A960FB662
:101FE000F894DEBF0FBECDBFDF91CF911F910F914F
:101FF000FF90EF90DF90CF90BF90AF900895DF9269
:10200000EF92FF920F931F93CF93DF93CDB7DEB77D
:102010002B970FB6F894DEBF0FBECDBF7A878B87A4
:10202000F42E052F162FE72ED82E61110E94991934
:102030001E821D827E2DEC82DD824F2D502F612F5E
:102040008D2D9E812B960FB6F894DEBF0FBECDBFAF
:10205000DF91CF911F910F91FF90EF90DF900C9443
:102060006D16FC01808191810C942619CF93C82FA5
:10207000882309F490C08238C1F40E94D40E81FDF7
:102080008AC089E30E9454190E94C5192FEF81EE7E
:1020900094E0215080409040E1F700C0000089E3C7
:1020A0000E945B19CF910C94C5198338A1F40E944A
:1020B000D40E80FD70C083E50E9454190E94C5199A
:1020C0002FEF81EE94E0215080409040E1F700C076
:1020D000000083E5E5CF8438A1F40E94D40E82FD90
:1020E0005AC087E40E9454190E94C5192FEF81EE4F
:1020F00094E0215080409040E1F700C0000087E468
:10210000CFCF8CEF8C0F813AB8F48C2F0E9414083B
:10211000811141C06C2F80910F01909110010E949C
:10212000E71A882329F08C2F0E945B190E94C51999
:102130008C2F0E945419B6CF80E28C0F883048F45F
:10214000C77081E001C0880FCA95EAF70E947C1928
:10215000A9CFEBE5EC0FE33040F4F0E0E956FE4F99
:10216000808190E0CF910C94F90EE8E5EC0FE73117
:1021700050F4F0E0EE0FFF1FE759FE4F8081918190
:10218000CF910C940F0FCD3E30F08C2F0E941E0982
:10219000CF910C94F109CF910895882309F452C08E
:1021A000823871F40E94D40E81FF4CC089E30E94F2
:1021B00054190E94C51989E30E945B190C94C51932
:1021C000833859F40E94D40E80FF3CC083E50E94FE
:1021D00054190E94C51983E5EFCF843859F40E9441
:1021E000D40E82FF2FC087E40E9454190E94C519A3
:1021F00087E4E2CF9CEF980F913AF0F290E2980FCB
:10220000983050F4877091E001C0990F8A95EAF7F1
:10221000892F0E948219D2CF9BE5980F933020F42A
:1022200090E080E00C94F90E98E5980F973120F437
:1022300090E080E00C940F0F8D3E20F00E94780912
:102240000C94F10908951F93CF93DF93182FEB019E
:102250000E943610209731F4812FDF91CF911F918A
:102260000C94CD108FE99FE00197F1F700C00000BA
:102270002197F0CF70E060E0893311F460E570E001
:102280000C942311882321F00E947C190C94C51909
:102290000895882321F00E9482190C94C51908958D
:1022A000BF92CF92DF92EF92FF920F931F93CF9343
:1022B000DF936C01D62FC72FFC0112810581029597
:1022C0000F700E947219E82E8823A1F0E12E1123CD
:1022D00089F08C2F807F803429F080E28D0FE12CF3
:1022E000883040F082E00E94101A0E94721991E03A
:1022F000E82EE926BC2EB2949FE0B922EB2DF0E047
:10230000E357FC4D0C942F230C2F0F70C07F11F05E
:102310000295007F1123A9F0002359F080E28D0F70
:10232000883010F0D11109C0802F0E947C190E94C2
:10233000C5198D2F0E94361014C0802F0E948C1951
:10234000F6CF8D2F0E94CD10002359F080E28D0F23
:10235000883010F0D1112CC0802F0E9482190E9469
:10236000C5192B2D2850330B2430310520F40E9441
:10237000D40E0E94CB02EE2009F49EC10E946E1979
:1023800080FD9AC1F60112820E9468190E94F1171D
:10239000C6010E947D130E946819DF91CF911F91A1
:1023A0000F91FF90EF90DF90CF90BF900C94121898
:1023B000802F0E949219D3CFFC2FFF70FF2EC07F79
:1023C000C03219F0F29480EFF822DD2369F0D130A9
:1023D00049F1112391F1002351F1F601858180FF2C
:1023E000A8CF8F70858323C0112381F0011106C00F
:1023F0000E94AC198F290E944211B3CF0130C1F75E
:102400000E94AC198F290E94B219ABCF011106C0EE
:102410000E94BB198F2D0E944911A3CF013009F4EE
:10242000A0CFF6CF112329F0063008F09ACF8F2DD8
:10243000E2CF053008F095CFEDCF002359F3D93323
:1024400049F4FFEF27EE33E0F15020403040E1F750
:1024500000C000008D2F0E94CD1083CF8C2F869559
:102460008695837069F0813009F07BCF8D2F9C2F8A
:102470009370111102C090E080E00E940F0F71CFA5
:102480008D2F9C2F9370111102C090E080E00E946C
:10249000F90E67CF8D2F112329F00E941E090E948B
:1024A000F1095FCF0E947809FACF8C2F837009F071
:1024B00041C0111156CF4D2F429546954770440F9C
:1024C000440F0D2F0F7010E030E020E0042E04C008
:1024D000000F111F221F331F0A94D2F760E070E033
:1024E000CB01D4FF0FC06FE070E080E090E004C04B
:1024F000660F771F881F991F4A95D2F760957095D0
:1025000080959095C695C695C370602B712B822BD4
:10251000932BC23049F058F4C13019F00E94A31730
:1025200020CF0E9491171DCF0E94B5171ACF0E948D
:102530008F1717CF8695112311F08C2F8170882368
:1025400009F40FCF4D2F429546954770440F440F25
:102550000D2F0F7010E030E020E0042E04C0000FBB
:10256000111F221F331F0A94D2F760E070E0CB01E5
:10257000D4FF0FC06FE070E080E090E004C0660F11
:10258000771F881F991F4A95D2F76095709580959F
:102590009095C695C695C370602B712B822B932B9B
:1025A000C23049F058F4C13019F00E946818D9CEF1
:1025B0000E945618D6CE0E947A18D3CE0E94CB170E
:1025C000D0CECF70112329F08C2F0E94F1178D2FC0
:1025D00012CF8D2F0E9449118C2F0E941218C1CE4C
:1025E000D23F89F160F4D03FC9F0D13F29F11123E6
:1025F00009F442C001119DCE8C2F8F7121C0D33FB1
:1026000039F1D43FA1F7112369F1CF718C2F0E94CA
:10261000F11763E08C2F0E94FB19A3CE112341F028
:10262000053008F09ECE8C2F8F710E94351899CE00
:10263000063008F096CEF7CF8C2F8F71112369F2F8
:102640000E94F1178ECE8C2F8F711123C9F3C5CF45
:10265000112329F08C2F8F710E94DC1782CE0E94EB
:10266000D7177FCE81E00E94101A023008F479CE8D
:1026700082E00E94101A75CE002359F0D93309F078
:10268000E9CE8FEF97EEE3E081509040E040E1F734
:10269000DFCE8C2F8F71A1CF4C2F4F706D2FC601C5
:1026A0000E94D3020E9407175CCE4C2F4F706D2FF3
:1026B000C6010E94D60255CEDF91CF911F910F9196
:1026C000FF90EF90DF90CF90BF9008950F931F93EE
:1026D000CF93DF93EC01688179818A810E94301960
:1026E0008C010E948C180E948E17B801CE01DF91D8
:1026F000CF911F910F910C945011CF93DF93EC0168
:102700008B819C81892B29F08881998189238F3F36
:1027100059F4DF91CF910895CE010E946613CE0146
:10272000DF91CF910C946302CE010E948802811147
:10273000F3CF0E947219882361F38A81882349F3B9
:1027400082E0DF91CF910C94101A90E080E00E941B
:10275000F90E90E080E00E940F0F0E9499190E94EC
:10276000A9190E94C5190E94180B0C94F1090E9426
:1027700062190C94A5130E9489190C94B713E92FC0
:10278000E295EF70E250EE3070F4F0E0E356FC4D6D
:102790000C942F23803F19F020F4883E20F481E030
:1027A0000895843FE1F380E00895883EC0F3813FBF
:1027B000D1F7F5CF93FB882780F908950E94261959
:1027C0000C94BF13CF93DF9300D000D00F92CDB7FE
:1027D000DEB70F900F900F900F900F90DF91CF9179
:1027E0000895CF93DF9300D000D000D0CDB7DEB7EF
:1027F00026960FB6F894DEBF0FBECDBFDF91CF9106
:1028000008951F93CF93DF93C091DF0116E080916D
:10281000E0018C1304C0DF91CF911F910895D0E0A7
:102820001C9FF0011D9FF00D1124EF51FE4F4081C0
:10283000518162817381848195810E94F113219677
:10284000C770E5CF409111025091120260911302BE
:102850007091140280911502909116020C94F1135C
:102860002091DF019091E00156E0291302C080E041
:10287000089530E0529FF001539FF00D1124EF5165
:10288000FE4F7181761306C07081781303C0728188
:10289000741304C02F5F3F4F2770E7CF81E0089586
:1028A0001F93CF93DF9380911602807FA9F48091CC
:1028B0001302882389F08091DF01C091E0016091CB
:1028C000110270911202A0911402B0911502D62F3C
:1028D000D72316E0C81304C0DF91CF911F9108954C
:1028E00090E0109711F0DF3F19F401968770F2CF56
:1028F000189F9001199F300D1124F901EF51FE4FDF
:1029000041814713F2CF40814613EFCF42814111FD
:10291000ECCF438154814A1B5B0B483C510528F79F
:10292000809116028F70806180931602F901EA513E
:10293000FE4F80818F708061808381E192E00E94F0
:102940007D13DF91CF911F910C9401148F929F9270
:10295000AF92BF92CF92DF92EF92FF920F931F93AD
:10296000CF93DF93CDB7DEB761970FB6F894DEBF94
:102970000FBECDBF8C0185E0F801DE011D960190F0
:102980000D928A95E1F7D801EC901196FC90119781
:102990001296CC90129781E1A82E82E0B82E409139
:1029A0001402509115024115510509F474C190911A
:1029B000110220911202892F82238F3F09F46BC1EB
:1029C00013968D909C901497D0901302F401E41B01
:1029D000F50BDD2009F40AC180911602382F307FF3
:1029E000E83CF10508F0C1C0311189C0DC2C2F1181
:1029F00026C09E1124C0C11022C08F7080618093B8
:102A000016020E942214C5010E947D1380911602B5
:102A1000D80115968C938D2D61960FB6F894DEBF74
:102A20000FBECDBFDF91CF911F910F91FF90EF901F
:102A3000DF90CF90BF90AF909F908F9008958114BA
:102A4000910429F08F2D8E218F3F09F043C180E042
:102A500080FF15C04C2D6F2D8E2D0E9430148823C1
:102A600071F081E192E00E947D1386E0E1E1F2E005
:102A7000DF011D928A95E9F70E9422143EC0892841
:102A800029F08F2D8E218F3F09F021C180E0B82FD2
:102A9000B170AB2E80FF29C04C2D6F2D8E2D0E9462
:102AA0003014B82E811121C0ED86FE868D859E855D
:102AB0000E942619292F22952F70223050F02430A1
:102AC00078F49F7051F0F8019581907F31F4DB2C00
:102AD000A2CF9F7011F08823D1F3805E8830B8F3C5
:102AE000C8010E947D13BA2CF2CFCC2009F493CFF9
:102AF00080911602816080931602D12C8CCF2F1109
:102B000005C09E1103C0CC2009F48DC0ED86FE8661
:102B10008D859E850E94DE13882319F1CC2009F152
:102B200080911602803270F02091110230911202D1
:102B300038872F8319869B868A868C87CE010796D5
:102B40000E947D1386E0F801A1E1B2E001900D92B0
:102B50008A95E1F70E9450140E942214DD24D39438
:102B60005ACFC8010E947D13F9CF311112C0782DC0
:102B7000998A888AA7016C2D89890E94E21381E1D4
:102B800092E00E947D1386E0F50111928A95E9F7A3
:102B900073CF2F110FC09E110DC0C1100BC0159621
:102BA0008C93C8010E947D1386E0F50111928A95ED
:102BB000E9F731CFED86FE868D859E850E94DE1376
:102BC000882379F2CC2069F280911602803208F4D1
:102BD000B9CF20911102309112023A8329831B82CE
:102BE0009D828C828E83CE010196AACFE83CF105AE
:102BF00008F043C0DC2CCC2009F4B3CF2F112CC03B
:102C00009E112AC08091160280FD1DC0982F907FD2
:102C1000D1F015968C931597903F39F0982F907FAF
:102C2000905F8F70892B15968C93C8010E947D133D
:102C300086E0F801A1E1B2E001900D928A95E1F7FA
:102C40000E942214E8CE86E0F801A1E1B2E00190F2
:102C50000D928A95E1F7DFCEED86FE868D859E8505
:102C60000E94DE1381116ECF8091160281608093E5
:102C70001602C8010E947D13CECE782D998A888ACB
:102C8000A7016C2D89890E94E21386E0F50111925B
:102C90008A95E9F7D5CFCC2009F463CFED86FE867F
:102CA0008D859E850E94DE13D82E882309F459CF86
:102CB00086E0F801A1E1B2E001900D928A95E1F77A
:102CC00081E192E00E9431100E945014B9CF81E05E
:102CD0008C25DDCE81E08C25BBCE1F93CF93DF9377
:102CE000CDB7DEB72C970FB6F894DEBF0FBECDBFC1
:102CF0004F83588769877A878B879C87CE01079691
:102D00000E94A614882369F08A859B85892B39F057
:102D10004F815885842F85238F3F09F071C016E0BD
:102D20005FC086E0FE013796DE01119601900D929C
:102D30008A95E1F78A859B85892B89F38F81988510
:102D400089238F3F61F32091E00130E0C9010196B2
:102D5000877099274091DF014817190671F40E9486
:102D6000BB131092E0011092DF0186E0E1E1F2E096
:102D7000DF011D928A95E9F7D2CF96E0929FD001AC
:102D8000939FB00D1124AF51BE4FFE0131960190BB
:102D90000D929A95E1F78093E0010E940114BFCF54
:102DA000819FC00111248F519E4F0E94A614882339
:102DB000E9F0E091DF011E9FF0011124EF51FE4F79
:102DC0004081518162817381848195810E94F113D8
:102DD0008091DF0190E00196877099278093DF0151
:102DE0008091DF019091E0018913DACF2C960FB624
:102DF000F894DEBF0FBECDBFDF91CF911F91089534
:102E000069857A858B859C850E94F11388CFEF9226
:102E1000FF920F931F93CF93DF938C01892B81F047
:102E2000F12CEE24E394E8012196F8018491843793
:102E300070F4843008F05FC08130B1F08230A1F1CD
:102E4000DF91CF911F910F91FF90EF9008958537FB
:102E500009F44CC008F43DC09CE7980F903780F708
:102E60008F770E94CD1049C00E5F1F4FFE018491E5
:102E700090E2980F983060F48770FE2D01C0FF0F2C
:102E80008A95EAF78F2F0E949C190E94C51902C0EB
:102E90000E9436108F2D815030F2EFE9FFE031971C
:102EA000F1F700C00000F7CF0E5F1F4FFE018491C5
:102EB00090E2980F983050F48770FE2D01C0FF0FFC
:102EC0008A95EAF78F2F0E94A219DFCF0E94CD10BA
:102ED000E1CF0E5F1F4FFE01C491C150D8F28FE9C0
:102EE0009FE00197F1F700C00000F7CF0E5F1F4F82
:102EF000FE01F490CFCF0E9436108E01CBCF089503
:102F00000C947F170E9480176093480270934902C7
:102F100080934A0290934B020C94A51308950C944D
:102F200082170F931F93009148021091490220913C
:102F30004A0230914B02602B712B822B932B1F91F5
:102F40000F910C9482170F931F93009148021091D8
:102F5000490220914A0230914B026023712382235F
:102F600093231F910F910C9482170F931F9300913D
:102F700048021091490220914A0230914B02602789
:102F80007127822793271F910F910C9482170C941D
:102F90007F170C94C7170E94C9176093440270935F
:102FA000450280934602909347020C94A51360E07B
:102FB00070E0CB010C94CB170F931F9341E050E0CE
:102FC00060E070E08A019B0104C0000F111F221F06
:102FD000331F8A95D2F7C901B8011F910F910C9444
:102FE000CB170F931F9341E050E060E070E004C006
:102FF000440F551F661F771F8A95D2F780914402B0
:1030000090914502A0914602B09147028A019B012E
:10301000082B192B2A2B3B2BC901B8011F910F91AB
:103020000C94CB170F931F9341E050E060E070E0E9
:1030300004C0440F551F661F771F8A95D2F7CB0136
:10304000BA01609570958095909500914402109119
:10305000450220914602309147026023712382236A
:1030600093231F910F910C94CB170F931F9341E063
:1030700050E060E070E004C0440F551F661F771FEA
:103080008A95D2F78091440290914502A091460220
:10309000B09147028A019B01082719272A273B275D
:1030A000C901B8011F910F910C94CB170F931F9377
:1030B000009144021091450220914602309147024E
:1030C000602B712B822B932B1F910F910C94CB179C
:1030D0000F931F93009144021091450220914602E4
:1030E0003091470260237123822393231F910F9114
:1030F0000C94CB170F931F9300914402109145023B
:10310000209146023091470260277127822793273A
:103110001F910F910C94CB170895E92FEE0FE90F33
:10312000EE0F8E0F982F977041E001C0440F9A95D3
:10313000EAF786958695869595E0899FF00111249A
:10314000E95EFD4F30E020E070E05191DF01119722
:10315000CB01022E02C0969587950A94E2F7817002
:1031600081958527842385278C932F5F3F4F2530BA
:10317000310559F70895E92FEE0FE90FEE0F8E0F85
:10318000982F977086958695869525E0829FF00109
:103190001124E95EFD4F50E040E080E0219130E0F5
:1031A000092E02C0369527950A94E2F7217033273D
:1031B000042E01C0220F0A94EAF7822B4F5F5F4F63
:1031C0004530510559F70895BF92CF92DF92EF92A3
:1031D000FF920F931F93CF93DF938C01C090440213
:1031E000D0904502E0904602F0904702809148025C
:1031F00090914902A0914A02B0914B02C82AD92A63
:10320000EA2AFB2ACFE1D0E0BC2ED701C6010C2E62
:1032100004C0B695A795979587950A94D2F780FD37
:103220000EC0219788F7B12C8B2DDF91CF911F9184
:103230000F91FF90EF90DF90CF90BF900895B8016D
:103240008C2F0E94F302019761F3EECFCF93DF93AF
:10325000EC010E94E418BE01DF91CF910C94F302BF
:103260001F93CF93DF93EB019091DE01992331F00F
:10327000CB01DF91CF911F910C942619882379F00F
:10328000CB010E94E418182F682FCE010E948D18E0
:10329000BE01812FDF91CF911F910C94F302CB01DE
:1032A0000E94BB18182FF4CF682F80910F019091C6
:1032B00010010C941D1B682F80910F01909110013B
:1032C0000C941F1B80910F01909110010C94211BF5
:1032D00080914C02859585958595089580914C0245
:1032E0008770089590914C02977081E009F480E016
:1032F000089580915802089590915802892B8093E7
:1033000058020895809590915802982390935802FE
:10331000089510925802089590915702892B809336
:1033200057020895809590915702982390935702E1
:10333000089510925702089590915602892B809318
:1033400056020895809590915602982390935602C4
:10335000089510925602089580914D02089508959F
:103360000C94AF1990914D02981721F080934D0263
:103370000C94B019089580914D02882329F0109281
:103380004D0280E00C94B0190895E0910F01F09186
:103390001001809158028083E0910F01F09110019B
:1033A000808190915702892B8083E0910F01F091E9
:1033B0001001808190915602892B808390914D025B
:1033C000992381F0E0910F01F09110018081892B08
:1033D000808380910F01909110010E94D51A811174
:1033E0000E94BB1980910F01909110010C94E00E86
:1033F00008950C94F81998E0899F90011124622B8C
:1034000060934C020E94F11780914C02859585953E
:1034100085950C94F91910924C0280E00C94F919DE
:1034200090914C028095892380934C02282F27701D
:1034300071F4282F082E000C330B9217130639F065
:103440008595859585950E9412180C940B1A089500
:1034500080E0089590E080E00E94512321E08B3EBF
:103460009E4F09F020E0822F089582E090E00C94B6
:10347000492383E090E00C944923CF9384E090E0CB
:103480000E944923C82F81E290E00E944923982F8F
:103490008C2FCF910895CF93C92F682F84E090E0AF
:1034A0000E9457236C2F81E290E0CF910C94572318
:1034B000AB01BC018FE090E00C946923AB01BC012F
:1034C00083E190E00C94692360E070E0CB010C9400
:1034D0005E1A60E070E0CB010E94581A0C94641AE6
:1034E0006BEE7EEF90E080E00E94752360E082E06A
:1034F00090E00E94572360E083E090E00E94572311
:10350000109248021092490210924A0210924B0205
:1035100060E084E090E00E94572360E081E290E068
:103520000E94572360E085E090E00E94572360E00E
:1035300086E090E00E9457236FEF87E090E00E94C2
:10354000572340E050E0BA0188E090E00E946923F0
:1035500060E08DE090E00E94572340E050E0BA0127
:1035600088E190E00E94692360E087E190E00E949A
:10357000572340E050E0BA018CE190E00E946923BB
:1035800060E080E290E00E94572340E050E0BA0102
:1035900088E190E00E9469230C94691A0C94701AD7
:1035A000682F8EE090E00C9457239C012E5F3F4FD4
:1035B000AC01485F5F4F80E02417350709F4089598
:1035C000F90191919F019923B9F38F5FF5CF66239C
:1035D00049F0FC01329608962191261729F0E81748
:1035E000F907D1F780E0089581E008959C01FC017E
:1035F00032969FEF80E04191461751F09F3F19F4BA
:10360000411101C0982F8F5F8630A9F79F3F09F4C1
:103610000895290F311D97FD3A95F90162830895A8
:10362000FC01329608962191261303C0DF01119701
:103630001C92E817F907B9F708950C94F61A0C9440
:10364000101B029626E0FC0111922A95E9F70895D5
:10365000089508950C94291B80918D02843049F1BE
:103660000E942A1B80E00E94CB0210925A0288E13D
:1036700090E020E40FB6F894A895809360000FBE08
:103680002093600083B7817F846083BF83B78160AC
:1036900083BF7894889583B78E7F83BF0FB6F894E5
:1036A000A89580916000886180936000109260000E
:1036B0000FBE08950895CF930E94281B0E94C10554
:1036C0000E945A1BC0E08C2F0E94E604811105C0A5
:1036D000CF5FCC30C1F7CF91089581E0FCCF089542
:1036E0000C946F1B0E94BB130E94D40E0E94CB024D
:1036F0000C94701B1F921FB61F9211248F939F93DF
:10370000AF93BF9380915A02811113C080917F02C1
:1037100090918002A0918102B09182024196A11DF8
:10372000B11D80937F0290938002A0938102B09399
:103730008202BF91AF919F918F911F901FBE1F90EA
:10374000189582E084BD93E095BD9AEF97BD809374
:103750006E0008952FB7F89480917F0290918002B7
:10376000A0918102B09182022FBF08952FB7F894E3
:1037700060917F027091800280918102909182021B
:103780002FBF08959C014FB7F89480917F029091CC
:103790008002A0918102B09182024FBF821B930BE5
:1037A000089578941F921FB61F9211248F939F93B0
:1037B000AF93BF9380917F0290918002A09181028C
:1037C000B09182020196A11DB11D80937F0290935A
:1037D0008002A0938102B0938202BF91AF919F912A
:1037E0008F911F901FBE1F90189510928302109208
:1037F000840210928502109286020895CF92DF9281
:10380000EF92FF926B017C010E947A0681110EC03B
:103810000E94B61BC61AD70AE80AF90AC0928302A8
:10382000D0928402E0928502F0928602FF90EF909F
:10383000DF90CF9008950F931F930E947A068823FC
:1038400021F01F910F910C94B61B0E94B61B0091A2
:103850008302109184022091850230918602600FCC
:10386000711F821F931F1F910F91089587E797E79C
:10387000909301088093000888E19AE00FB6F894CD
:10388000A895809360000FBE90936000FFCF909347
:103890009B0180939A0108950E942A1A811102C007
:1038A0000E94CE1A0E94351A809359020E943D1A36
:1038B00090938802809387020E94391A682F70E0E3
:1038C00090E080E00E948F17609144027091450261
:1038D00080914602909147020C94C917809163022F
:1038E0000895CF93DF9300D00F92CDB7DEB79091BC
:1038F0008D02943019F589837B836A8382E08093FB
:10390000E9008FEF9091E800815095FD06C095ED9C
:103910009A95F1F700008111F5CF8091E80085FFBD
:103920000DC050E040E063E070E0CE0101960E94DF
:103930008A1E8091E8008E778093E8000F900F90A8
:103940000F90DF91CF910895BC0184E00C94711C1D
:10395000BC0183E00C94711C9C0182E08093E9001F
:103960009FEF8091E800915085FD06C085ED8A9516
:10397000F1F700009111F5CF8091E80085FF0CC0B0
:1039800050E040E066E070E0C9010E948A1E80912C
:10399000E8008E778093E8000895CF93DF93EC01E1
:1039A00081E08093E9008FEF9091E800815095FDD0
:1039B00006C095ED9A95F1F700008111F5CF809141
:1039C000E80085FF14C050E040E068E070E0CE0100
:1039D0000E948A1E8091E8008E778093E80088E03C
:1039E000FE01ABE5B2E001900D928A95E1F7DF911F
:1039F000CF91089580918C02811109C00E941A20F4
:103A00000E9477208091E20084608093E200089514
:103A100010928C02089508950895089542E061EC93
:103A200081E00E94961F42E261EC82E00C94961FB6
:103A300080918F02833009F45FC030F48130C1F18E
:103A4000823009F49BC008958A3009F487C08B3016
:103A500009F46DC0893009F04EC080918E02813228
:103A600009F049C08091920290919302029708F068
:103A700042C08091E800877F8093E8008091E80051
:103A800082FF35C09091F3008091F200029729F4F3
:103A90008091F1008B7F813021F48091F10080933F
:103AA00063028091E8008B778093E8000C94CA1F32
:103AB00080918E02813AF9F48091E800877F8093AB
:103AC000E8008091920290919302892B61F468E062
:103AD0008BE592E070E00E94D91E8091E8008B7720
:103AE0008093E800089560E090E080E0F3CF80915B
:103AF0008D028111C3CF089580918E02813AD9F74A
:103B00008091920290919302892BA9F78091E8000D
:103B1000877F8093E8008091E80080FFFCCF809150
:103B20001B018093F1008091E8008E77BDCF8091DA
:103B30008E02813201F78091920290919302892B3B
:103B4000D1F68091E800877F8093E8000E94CA1F29
:103B50008091900280931B010C94BB1380918E0284
:103B6000813249F68091E800877F8093E8000E94C7
:103B7000CA1F8091910280936402089580918E0201
:103B8000813A09F0B8CF8091E800877F8093E80000
:103B90008091E80080FFFCCF80916402C2CF84B79F
:103BA000877F84BF0FB6F894A895809160008861E4
:103BB00080936000109260000FBE80E890E00FB626
:103BC000F89480936100909361000FBE0E94460FAD
:103BD0000E941A200E9477208091E20084608093E6
:103BE000E20078940E9400230E94540F81E191E04A
:103BF0000E94CF0E80918D028530A9F00E945E0F49
:103C00000E94520F0E94530FF5CF0E942C1B8091EF
:103C10008B02882341F00E945B1B882321F00E94C5
:103C2000741E0E94BB1380918D02853071F30E9437
:103C3000721BE4CF0C941C1E292F3327233031052F
:103C400019F168F42130310509F444C022303105FE
:103C500009F445C090E080E030E020E025C021324A
:103C6000310549F122323105A9F780E490E026E6DA
:103C700033E061157105C1F08BE790E02BEE32E087
:103C80006130710589F0E6CF99278130910581F087
:103C9000009729F00297F1F6ECE5F2E002C0EAE9BC
:103CA000F2E0849190E09F01FA013183208308952E
:103CB000EAE8F2E0F6CF89E090E020EB32E061152F
:103CC000710591F389E090E029EC32E061307105F3
:103CD00059F3C0CF82E190E029ED32E0E5CF8BE3EC
:103CE00090E02EE932E0E0CF80E189BD82E189BD3C
:103CF00009B400FEFDCF8091D8008F7D8093D8005D
:103D00008091E00082608093E0008091E00081FD7E
:103D1000FCCF0895AF92BF92CF92DF92FF920F93A4
:103D20001F93CF93DF936C01EB018A010E94E91F7F
:103D3000F82E811123C00115110539F0F801808199
:103D40009181C81BD90BC80ED91EB12CA12C20976C
:103D5000A9F08091E80085FD22C08091E8008E776F
:103D60008093E80001151105A1F0F801808191818F
:103D7000A80EB91EB182A08285E0F82E8F2DDF91AA
:103D8000CF911F910F91FF90DF90CF90BF90AF9098
:103D900008950E94E91F8823D1F2F82EEFCFF60193
:103DA00081916F018093F1002197FFEFAF1ABF0A55
:103DB000CECFFC01809194029091950286179707CF
:103DC000A0F06115710529F49091E8009E77909319
:103DD000E80090E06115710551F4911108C08091DF
:103DE000E80082FF34C080E00895BC01F2CF8091EA
:103DF0008D028823C1F18530C1F18091E80083FDF7
:103E000030C08091E80082FDEACF8091E80080FF19
:103E1000E1CF8091F3002091F200382F61157105F8
:103E200019F02830310558F091E02830310509F0BB
:103E300090E02091E8002E772093E800CBCF81918D
:103E40008093F100615071092F5F3F4FE7CF809160
:103E50008D02882341F0853041F08091E80083FF96
:103E6000BECF81E0089582E0089583E00895FC01CB
:103E7000809194029091950286179707A0F06115A2
:103E8000710529F48091E8008E778093E80090E036
:103E90006115710551F4911108C08091E80082FF0D
:103EA00035C080E00895BC01F2CF80918D02882357
:103EB000C9F18530C9F18091E80083FD31C080915E
:103EC000E80082FDEACF8091E80080FFE1CF809199
:103ED000F3002091F200382F6115710519F0283098
:103EE000310558F091E02830310509F090E08091DB
:103EF000E8008E778093E800CBCF84918093F10027
:103F00003196615071092F5F3F4FE6CF80918D024E
:103F1000882341F0853041F08091E80083FFBDCFD8
:103F200081E0089582E0089583E00895982F973006
:103F300028F08F708093E90081E008959093E90064
:103F4000242F762F50E0981731F07091EC002091DB
:103F5000ED005091F00021FD02C09F5FE8CF30914D
:103F6000EB003E7F3093EB003091ED003D7F3093CE
:103F7000ED003091EB0031603093EB007093EC007A
:103F80002093ED005093F0002091EE0027FDE5CF47
:103F900080E0089580918E0287FF13C08091E80031
:103FA00082FF06C08091E8008B778093E80004C010
:103FB00080918D028111F2CF089580918D02882326
:103FC000D9F38091E80080FFF8CF8091E8008E77E8
:103FD000ECCF2091E4003091E50095E6A901209115
:103FE000EC00822F817020FF06C08091E80080FFE6
:103FF00006C080E008952091E80022FD1AC080915B
:104000008D02882389F0853089F08091EB0085FD51
:104010000FC02091E4003091E50042175307F9F2F8
:104020009150E1F684E0089582E0089583E00895D8
:1040300081E008950E9488200E949020E0EEF0E048
:10404000808181608083E8EDF0E080818F778083DC
:1040500019BCA7EDB0E08C918E7F8C9380818F7E10
:10406000808310928C0208950F931F93CF93DF9358
:104070000E9488200E949020C8EDD0E088818F7730
:10408000888388818068888388818F7D888319BC34
:1040900010928D021092890210928B0210928A0265
:1040A00000EE10E0F80180818B7F80838881816041
:1040B000888342E060E080E00E94961FE1EEF0E03D
:1040C00080818E7F8083E2EEF0E08081816080835A
:1040D000808188608083F80180818E7F80838881E1
:1040E00080618883DF91CF911F910F910895E8ED52
:1040F000F0E080818F7E8083E7EDF0E08081816059
:10410000808384E082BF81E080938C020C94342011
:10411000E8EDF0E080818E7F80831092E2000895C8
:104120001092DA001092E10008951F920F920FB6DC
:104130000F9211242F933F934F935F936F937F932D
:104140008F939F93AF93BF93EF93FF938091E10081
:1041500082FF0BC08091E20082FF07C08091E100E6
:104160008B7F8093E1000E94FF228091DA0080FF24
:1041700019C08091D80080FF15C08091DA008E7F31
:104180008093DA008091D90080FF96C080E189BDDC
:1041900082E189BD09B400FEFDCF81E080938D02EC
:1041A0000E94FA1C8091E10080FF19C08091E2001A
:1041B00080FF15C08091E2008E7F8093E2008091A5
:1041C000E20080618093E2008091D8008062809359
:1041D000D80019BC85E080938D020E940C1D80914F
:1041E000E10084FF2BC08091E20084FF27C080E1C2
:1041F00089BD82E189BD89B5982F917080FFFBCF81
:104200008091D8008F7D8093D8008091E1008F7ECF
:104210008093E1008091E2008F7E8093E2008091A4
:10422000E20081608093E20080918902882309F492
:1042300049C084E080938D020E940D1D8091E100B1
:1042400083FF29C08091E20083FF25C08091E100B7
:10425000877F8093E10082E080938D021092890233
:104260008091E1008E7F8093E1008091E2008E7F5B
:104270008093E2008091E20080618093E20042E05E
:1042800060E080E00E94961F8091F000886080933B
:10429000F0000E940B1DFF91EF91BF91AF919F9194
:1042A0008F917F916F915F914F913F912F910F90DF
:1042B0000FBE0F901F90189519BC10928D020E948E
:1042C000081D70CF8091E30087FD93E090938D02ED
:1042D000B3CF1F920F920FB60F9211242F933F93DB
:1042E0004F935F936F937F938F939F93AF93BF93FE
:1042F000CF93DF93EF93FF93D091E900DF7080912C
:10430000EC00C82FC17080FDC0E81092E9008091D8
:10431000F000877F8093F00078940E94AD21109286
:10432000E9008091F00088608093F000CD2BCF7081
:10433000C093E900FF91EF91DF91CF91BF91AF91D1
:104340009F918F917F916F915F914F913F912F91AD
:104350000F900FBE0F901F9018951F93CF93DF9370
:10436000CDB7DEB7AA970FB6F894DEBF0FBECDBFAC
:104370008EE892E02091F100FC012193CF01F2E060
:1043800086399F07B9F70E94181D8091E80083FFC6
:104390001EC180918E0290918F029A3008F017C151
:1043A000E92FF0E0E555FC4D0C942F23803899F06F
:1043B000823809F00CC1809192028F70873008F02A
:1043C00006C18093E9008091EB0085FB882780F986
:1043D0001092E90006C080918A0290918B0291119F
:1043E00082609091E800977F9093E8008093F100BD
:1043F0001092F1008091E8008E77E5C0882309F4DF
:10440000D3C0823009F0E3C0809190028111D6C000
:10441000809192028F702FEF280F263008F0D7C0BE
:104420008093E9002091EB0020FFC8C0933031F465
:104430008091EB0080628093EB00C0C09091EB0014
:1044400090619093EB0021E030E001C0220F8A954B
:10445000EAF72093EA001092EA008091EB0088606E
:10446000EACF8111B4C0109190021F778091E300D0
:104470008078812B8093E3008091E800877F809390
:10448000E8000E94CA1F8091E80080FFFCCF809165
:10449000E30080688093E30082E0111183E0809361
:1044A0008D0295C08058823008F091C080919002B2
:1044B000909191028C3D23E09207A1F583E08A83DD
:1044C0008AE289834FB7F894DE01139620E03EE03C
:1044D00051E2E32FF0E050935700E49120FF03C036
:1044E000E295EF703F5FEF708E2F90E0EA30C0F002
:1044F000C7968D939D932F5F243159F74FBF8091BD
:10450000E800877F8093E8006AE270E0CE010196C0
:104510000E94D91E8091E8008B778093E80057C0F5
:10452000C096E7CF6091920270919302AE014F5F07
:104530005F4F0E941A1EBC01892B09F448C090915C
:10454000E800977F9093E80089819A810E94371F45
:10455000E1CF8038E1F58091E800877F8093E80023
:10456000809189028093F10045CF811130C09091F4
:104570009002923060F58091E800877F8093E80098
:10458000909389020E94CA1F80918902882311F0AA
:1045900084E005C08091E30087FDFACF81E080933D
:1045A0008D020E940E1D13C080919002813079F41B
:1045B00081E0933009F080E080938B021092E90053
:1045C0008091E800877F8093E8000E94CA1F809155
:1045D000E80083FF0AC08091E800877F8093E800AD
:1045E0008091EB0080628093EB00AA960FB6F8945E
:1045F000DEBF0FBECDBFDF91CF911F91089508950B
:10460000CF9380918D028823A1F0C091E900CF70F3
:104610009091EC00892F817090FD80E8C82B10925A
:10462000E9008091E80083FD0E94AD21CF70C09326
:10463000E900CF91089597FB072E16F4009407D058
:1046400077FD09D00E94352307FC05D03EF49095F4
:1046500081959F4F0895709561957F4F0895EE0F56
:10466000FF1F0590F491E02D0994AA1BBB1B51E19B
:1046700007C0AA1FBB1FA617B70710F0A61BB70BD2
:10468000881F991F5A95A9F780959095BC01CD0177
:104690000895F999FECF92BD81BDF89A992780B50A
:1046A0000895A8E1B0E042E050E00C947D23262F6D
:1046B000F999FECF92BD81BDF89A019700B4021618
:1046C00039F01FBA20BD0FB6F894FA9AF99A0FBEC6
:1046D00008950396272F0E9458230E945723252FC1
:1046E0000E945823242F0C9458230196272F0E94B0
:1046F00058230C945723DC01CB01FC01F999FECF20
:1047000006C0F2BDE1BDF89A319600B40D92415059
:104710005040B8F70895F894FFCF84118411DC114C
:10472000DC112E124A12B111B1115512E112F01220
:10473000F0124C13B111B1115513CA13CA13D3138C
:10474000D313D513D313D313D313CA13CA13DA1342
:10475000D313D313DA13D621FE21E722FE21E72259
:0A47600031225222E722A922B522DD
:10476A00012808643C0714B60104B70106BB014ED0
:10477A00026E1CCD1CAC1CA81CA41C01E200E900A2
:10478A00EA00B500B600B700CD008301CC008A016B
:10479A009201940121022302240225022602270201
:1047AA002A02B300B4006F00700081828394669776
:1047BA00C63435F6F7313332360000000000000106
:1047CA00020304050607080900E200E900EA00B549
:1047DA0000B600B700CD008301CC008A0192019493
:1047EA00012102230224022502260227022A02B3F9
:0A47FA0000B4006F0070008182839C
:00000001FF
